:1020000000800020515E0000395E0000395E000053
:1020100000000000000000000000000000000000C0
:10202000000000000000000000000000395E000019
:102030000000000000000000395E0000A55E000006
:10204000395E0000395E0000395E0000395E000034
:10205000395E0000395E0000395E00003D5E000020
:10206000395E0000395E0000395E0000395E000014
:10207000115E0000395E0000395E0000395E00002C
:10208000395E0000395E0000395E0000395E0000F4
:1020900000000000395E0000395E0000395E00007B
:1020A000395E0000395E0000395E0000395E0000D4
:1020B0000000000010B5064C2378002B07D1054B1B
:1020C000002B02D0044800E000BF0123237010BDA4
:1020D0002001002000000000DCAE000008B5084B25
:1020E000002B03D00748084900E000BF07480368F9
:1020F000002B03D0064B002B00D0984708BDC046EC
:1021000000000000DCAE00002401002018010020C7
:102110000000000008B50368C9B21B68984708BDF5
:1021200008B5021C0821024803F076FD08BDC04630
:10213000400400207FB5426881689378303B0429D1
:1021400004D10A214B43D278303A9B18D8B2102BD5
:1021500008D9059B044800936521044A1D2303F018
:102160003FFAFF2007B000BDEC030020ACA3000045
:1021700008B5C368D868FFF7DDFF08BD70470000E9
:10218000F7B50E1C0021041C05F076FD2E4D00282D
:1021900009D0201C2D4905F083FD002803D0281C00
:1021A0002B4903F0E9FE201C06F088FB0190019901
:1021B000281C0A2203F041FF002E43D0281C254989
:1021C00003F0DAFE731EDBB200930127013EF6B284
:1021D000FF2E02D00A235F43F8E7201C002105F000
:1021E00069FD002805D0019806F088FB011C201C21
:1021F00003E0019806F082FB211C06F0EFF9041CB5
:10220000381C06F0D7FB011C201C06F0BDF805F0B9
:102210005BFD041C0A2105F08FFC002804D0009B04
:10222000013BDBB20093F5E7009E281C002E05D091
:102230000949013E03F0A0FEF6B2F6E7211C0A228E
:1022400003F013FFF7BDC0467C060020000080BFEE
:10225000CAA30000CCA30000CEA3000008B5084A22
:1022600008490023136213635163074A0748136246
:10227000136351630D2306490B2203F02BFC08BDA9
:102280007C03002088130000B403002040010020DC
:10229000580C002010B5C0B00C4C201C04F0E2F922
:1022A0000028F9D080236A46201C0A215B0004F034
:1022B000B4F9021EF0DD6946054802F0EDFF054B5A
:1022C000201C19780A2203F0DAFEE5E77C060020DC
:1022D000EC0300203C01002038B5074C051C082108
:1022E000201C03F045FC291C201C03F09AFC201C38
:1022F00003F0F5FC38BDC0464004002010B58B4803
:1023000003F016FC8A4803F013FC02210B2005F0B1
:102310001DFB02210D2005F019FB0420012105F011
:1023200073FA0820012105F06FFA0920012105F058
:102330006BFA1320002105F067FA1920012105F03E
:1023400063FA0620012105F05FFA1E20012105F045
:102350005BFA2820012105F057FA1020032105F02F
:1023600053FA0F20032105F04FFA2620012105F032
:102370004BFA0220011C05F047FA0520022105F066
:1023800043FA0320012105F03FFA0A20012105F05C
:102390003BFA1220012105F037FA0320002105F055
:1023A0008DFA0A20002105F089FA1E20012105F08E
:1023B00085FA0420002105F081FA0820002105F0AB
:1023C0007DFA0920002105F079FA1920002105F095
:1023D00075FA0620002105F071FA2620012105F08A
:1023E0006DFA1220012105F069FA0A20012105F099
:1023F0000BFA0A20012105F061FAE12149024D485A
:1024000004F0B8F94C4803F0C1FA01F0CBFA02F03D
:1024100027FE0121042005F051FA484803F056FD3B
:1024200002F01EFE1420FFF757FF454A01231178E2
:1024300019431170434A40211170434A10781843E0
:102440001070424A05201070414A107818431070ED
:10245000404A11704049087803430B7013780421F7
:102460000B43137082223D4B52001A603C4B5A784A
:10247000D209FBD13B493C4A11605A78D209FCD1C0
:102480003A493B4A11805A78D209FCD1394A3A4B31
:102490001168181C19431160384A93685906FBD417
:1024A000374B196801431960364B99684806FBD4CD
:1024B000354936480C1C016091680806FCD4344844
:1024C0003449086099680806FCD4106881214900E5
:1024D0000143116091688807FCD419682E480143B4
:1024E000196099688907C90FFBD12C480160916870
:1024F0008805FCD42A48046091684805FCD4FA2178
:10250000284A490011609A689105FCD4AF21264AF7
:10251000890011609A68D005FCD4244B244A1361C9
:10252000244A136102F0BEFA10BDC04640040020E8
:10253000400100207C06002030040020DC05000063
:10254000494400413444004152440041394400416F
:10255000474400413344004146440041080C0040D8
:10256000000C004004070300040C00401A44000063
:10257000020C00403C20004206000F0000200042F8
:102580003C24004200240042FFFFFF0040200042A4
:10259000FF030000402400420204000048200042E3
:1025A0004C20004248240042442400420000F041F4
:1025B0007C030020B403002070B5094C061C0D1CE0
:1025C000201C082103F0D4FA311C201C03F029FB45
:1025D000291C201C03F025FB201C03F080FB70BD90
:1025E00040040020F8B50E4D0E4E0C1C071C0821AF
:1025F000281C326003F0BCFA391C281C03F011FBC4
:10260000211C281C03F00DFB0324315D281C03F062
:1026100008FB013CF9D2281C03F061FBF8BDC04661
:102620004004002074030020F8B5124C071C0E1C57
:10263000201C0821151C03F09BFA391C201C03F0F8
:10264000F0FA311C201C03F0ECFA2916201CFFF7CD
:1026500061FD2914201CFFF75DFD2912201CFFF7E6
:1026600059FD291C201CFFF755FD201C03F037FBEA
:10267000F8BDC04640040020F8B50C4C071C0E1CE9
:10268000201C0821151C03F073FA391C201C03F0D0
:10269000C8FA311C201C03F0C4FA291C201C03F0CA
:1026A000C0FA201C03F01BFBF8BDC046400400200C
:1026B00008B50E20FF210022FFF7DEFF08BD000055
:1026C00010B5054C08210122201C03F0A5FA201C9E
:1026D00003F00AFBC0B210BD4004002008B50E2074
:1026E000FF210122FFF7C8FF0A2003F0EFFB322091
:1026F000FFF7F2FDFFF7E4FF0028F5D008BD00006A
:10270000F8B50D4C201C03F0EFFA071C201C03F059
:10271000EBFA051C201C03F0E7FA061C201C03F052
:10272000E3FAFF231E4036023F06374318401D40A0
:1027300038432D042843F8BD4004002038B5064C2A
:10274000201C03F0D1FA051C201C03F0CDFAEDB2D9
:102750002D02C0B2284338BD40040020F8B50B4F0D
:10276000381C03F0C1FA061C381C03F0BDFA051C26
:10277000381C03F0B9FA041C381C03F0B5FA044BFA
:102780001E705D709C70D8701868F8BD4004002001
:102790007403002038B50A4C051CC1B2201C03F09C
:1027A00057FF2904090E201C03F052FF2902090ECD
:1027B000201C03F04DFF290E201C03F049FF38BDFB
:1027C0007C060020F0B5011C89B02020FFF7F4FE44
:1027D0002C20FFF7A5FCFFF7C1FF071CFFF7BEFF8A
:1027E000061CFFF7BBFF051CFFF7B8FF0190FFF7C2
:1027F000B5FF0290FFF7B2FF0390FFF7AFFF049021
:10280000FFF7ACFF0590FFF7A9FF0690FFF778FFF1
:102810000790FFF775FF041C381CFFF7BBFF301C47
:10282000FFF7B8FF281CFFF7B5FF0198FFF7B2FFCD
:102830000298FFF7AFFF0398FFF7ACFF0498FFF78C
:10284000A9FF0598FFF7A6FF0698FFF7A3FF084D1D
:10285000079B281CD9B203F0FBFEE1B2281C03F051
:10286000F7FE281C034903F099FB09B0F0BDC046F0
:102870007C0600201AA8000008B5081C02F031FDF3
:10288000024B012200201A7008BDC04678030020C8
:1028900008B5081C02F025FD014B0020187008BD8A
:1028A0007803002008B5081C02F01BFD034B012132
:1028B0001A7800200A431A7008BDC0463C01002067
:1028C00008B5081C02F00DFD0248034903F066FB41
:1028D000002008BD7C0600201AA8000008B545208D
:1028E000FFF7FAFCBFF34F8F034A044BDA60BFF3E4
:1028F0004F8FC046FDE7C0460400FA0500ED00E03A
:1029000008B5081C02F0EDFC1220FFF7E5FC0020E2
:1029100008BD08B5081C02F0E4FC1320FFF7DCFC3E
:10292000002008BD08B5081C02F0DBFC1420FFF7EE
:10293000D3FC002008BD000038B5081C0D1CFFF7B3
:1029400017FC041C281C02F0CCFC012C02D1054B06
:102950001C7304E0022C02D1034B01221A730020E5
:1029600038BDC0467C030020B403002038B5081CE5
:102970000D1CFFF7FDFB041C281C02F0B2FC012C0F
:1029800002D10022044B03E0022C02D1034B0022AF
:102990001A73002038BDC0467C030020B403002019
:1029A00038B5081C0C1CFFF7E3FB051C201C02F0CB
:1029B00098FC291C0B20FFF7FFFD002038BD38B51F
:1029C000081C0C1CFFF7D4FB051C201C02F089FC22
:1029D000291C1820FFF7F0FD002038BD38B5081C71
:1029E0000C1CFFF7C5FB051C201C02F07AFCFFF74E
:1029F00075FE291C0F20FFF7DFFDFFF759FE0020B1
:102A000038BD38B5081C0C1CFFF7B2FB051C201C98
:102A100002F067FCFFF762FE291C1020FFF7CCFDD7
:102A2000FFF746FE002038BD38B5081C0C1CFFF728
:102A30009FFB051C201C02F054FC291C2520FFF7DD
:102A4000BBFDFFF73DFE0A22011C024803F017FB05
:102A5000002038BD7C06002038B5081C0C1CFFF790
:102A600087FB051C201C02F03CFC291C2620FFF7DC
:102A7000A3FDFFF725FE0A22011C024803F0FFFA1E
:102A8000002038BD7C06002038B5081C0C1CFFF760
:102A90006FFB051C201C02F024FC291C2320FFF7DF
:102AA0008BFDFFF70DFE0A22011C024803F0E7FA36
:102AB000002038BD7C06002038B5081C0C1CFFF730
:102AC00057FB051C201C02F00CFC291C2120FFF7E1
:102AD00073FD04220821074803F09EF8FFF73EFE2D
:102AE0000721FFF74DFB0449044803F057FA002083
:102AF00038BDC046400400201AA800007C06002013
:102B000038B5081C0C1CFFF733FB051C201C02F019
:102B1000E8FB291C2220FFF74FFD0422082107486B
:102B200003F07AF8FFF71AFE0721FFF729FB0449A3
:102B3000044803F033FA002038BDC04640040020AA
:102B40001AA800007C06002038B5081C0C1CFFF7F2
:102B50000FFB051C201C02F0C4FB291C2820FFF7DA
:102B60002BFD04220821074803F056F8FFF7F6FD75
:102B70000621FFF705FB0449044803F00FFA002083
:102B800038BDC046400400201AA800007C06002082
:102B900038B5081C0C1CFFF7EBFA051C201C02F0D2
:102BA000A0FB291C2720FFF707FD04220821074866
:102BB00003F032F8FFF7D2FD0821FFF7E1FA0449EC
:102BC000044803F0EBF9002038BDC0464004002063
:102BD0001AA800007C060020CB6870B5DB680C1CCE
:102BE000DB6886B059689A680D4B03A800930D4BBB
:102BF0000193002302F084FB201C039DFFF7B8FA29
:102C0000061C201C02F06DFB012E01D1064B02E0D8
:102C1000022E01D1054B5D61002006B070BDC0469B
:102C2000000020C0000020407C030020B4030020EE
:102C3000CB6870B5DB680C1CDB6886B059689A6895
:102C40000D4B03A800930D4B0193002302F058FB9A
:102C5000201C039DFFF78CFA061C201C02F041FB90
:102C6000012E01D1064B02E0022E01D1054B5D621F
:102C7000002006B070BDC046000020C0000020400B
:102C80007C030020B4030020CB6870B5DB680C1C0B
:102C9000DB6886B059689A680D4B03A800930D4B0A
:102CA0000193002302F02CFB201C039DFFF760FA28
:102CB000061C201C02F015FB012E01D1064B02E080
:102CC000022E01D1054BDD61002006B070BDC0466B
:102CD000000020C0000020407C030020B40300203E
:102CE000CB6870B5DB680C1CDB6886B059689A68E5
:102CF0000D4B03A800930D4B0193002302F000FB42
:102D0000201C039DFFF734FA061C201C02F0E9FA90
:102D1000012E01D1064B02E0022E01D1054BDD62EE
:102D2000002006B070BDC046000020C0000020405A
:102D30007C030020B4030020CB6870B5DB680C1C5A
:102D4000DB6886B059689A680D4B03A800930D4B59
:102D50000193002302F0D4FA201C039DFFF708FA28
:102D6000061C201C02F0BDFA012E01D1064B02E028
:102D7000022E01D1054B9D61002006B070BDC046FA
:102D8000000020C0000020407C030020B40300208D
:102D9000CB6870B5DB680C1CDB6886B059689A6834
:102DA0000D4B03A800930D4B0193002302F0A8FAEA
:102DB000201C039DFFF7DCF9061C201C02F091FA91
:102DC000012E01D1064B02E0022E01D1054B9D627E
:102DD000002006B070BDC046000020C000002040AA
:102DE0007C030020B4030020CB6870B5DB680C1CAA
:102DF000DB6886B059689A680D4B03A800930D4BA9
:102E00000193002302F07CFA201C039DFFF7B0F928
:102E1000061C201C02F065FA012E01D1064B02E0CF
:102E2000022E01D1054B1D62002006B070BDC046C8
:102E3000000020C0000020407C030020B4030020DC
:102E4000CB6870B5DB680C1CDB6886B059689A6883
:102E50000D4B03A800930D4B0193002302F050FA91
:102E6000201C039DFFF784F9061C201C02F039FA90
:102E7000012E01D1064B02E0022E01D1054B1D634C
:102E8000002006B070BDC046000020C000002040F9
:102E90007C030020B4030020CB6870B5DB680F48CA
:102EA000DB6886B09A680C1C596800230093019077
:102EB00003A802F025FA201C039DFFF759F9061C10
:102EC000201C02F00EFA012E01D1054B02E0022E69
:102ED00001D1044B1D61002006B070BD0000AA4264
:102EE0007C030020B403002030B5081C87B00C1C04
:102EF000FFF73EF9E368051CDB6803A8DB68596847
:102F00009A68002300930A4B0193FE239B0502F06D
:102F1000F7F9201C02F0E5F9039805F0CFFC291C15
:102F2000021C0120FFF780FB002007B030BDC04627
:102F30000000204130B5081C87B00C1CFFF718F9C1
:102F4000E368051CDB680C48DB6859689A68002355
:102F50000093019003A802F0D3F9201C02F0C1F9FC
:102F6000039805F0ABFC291C021C0520FFF75CFB55
:102F7000002007B030BDC04600007A44CB6810B5D1
:102F8000DB680D48DB6886B09A680C1C5968002322
:102F90000093019003A802F0B3F9201C02F0A1F9FC
:102FA000039805F08BFCFF21021C1620FFF73CFB69
:102FB000002006B010BDC04600007A44CB6830B592
:102FC000DB681048DB6887B09A680C1C59680023DE
:102FD0000093019003A802F093F9201CFFF7C8F8B2
:102FE000051C201C02F07DF9039805F067FC291CE4
:102FF000021C1520FFF718FB142002F067FF0020C9
:1030000007B030BD00F07F45CB6830B5DB680C1CE5
:10301000DB6887B059689A680C4B03A800930C4B87
:103020000193002302F06CF9201CFFF7A1F8051CA6
:10303000201C02F056F9291C039A1120FFF7D2FA3E
:10304000142002F043FF002007B030BD000020C173
:103050000000204130B5081C87B00C1CFFF788F831
:10306000E368051CDB6803A8DB6859689A68094BAC
:103070000093094B0193FE239B0502F041F9201CAC
:1030800002F02FF90620291C039AFFF7ABFA002063
:1030900007B030BD000020C10000204130B5081C41
:1030A00087B00C1CFFF764F8E368051CDB6803A815
:1030B000DB6859689A68094B0093094B0193002318
:1030C00002F01EF9201C02F00CF90720291C039ABB
:1030D000FFF788FA002007B030BDC046000020C1CD
:1030E0000000204130B5081C87B00C1CFFF740F8E9
:1030F000E368051CDB6803A8DB6859689A6800234D
:103100000093FE239B050193064B02F0F9F8201C67
:1031100002F0E7F80820291C039AFFF763FA002061
:1031200007B030BD0AD7A33C30B5081C87B00C1CD3
:10313000FFF71EF8E368051CDB6803A8DB68596825
:103140009A68094B0093094B0193002302F0D8F8C9
:10315000201C02F0C6F84620291C039AFFF742FA09
:10316000002007B030BDC046000020C10000204153
:1031700030B5081C87B00C1CFEF7FAFFE368051C8D
:10318000DB68FE20DB68800559689A68002300939D
:10319000019003A802F0B4F8201C02F0A2F803206A
:1031A000291C039AFFF71EFA002007B030BD30B586
:1031B000081C87B00C1CFEF7DBFFE368051CDB680E
:1031C000FE20DB68800559689A680023009301900F
:1031D00003A802F095F8201C02F083F80420291CB3
:1031E000039AFFF7FFF9002007B030BDCB6830B578
:1031F000DB680D1CDB6887B059689A68114B03A81F
:103200000093114B0193FE239B0502F079F8281CD3
:10321000FEF7AEFF041C281C02F063F8039805F0CB
:103220004DFB051C211C0C2001226B1C05D000222B
:10323000FFF722FAEAB20D20211CFFF71DFA002049
:1032400007B030BD000080BF00002041CB6830B522
:10325000DB680C1CDB6887B059689A680D4B03A8C3
:1032600000930D4B0193FE239B0502F049F8201CAF
:10327000FEF77EFF051C201C02F033F8039804F0D3
:1032800023FD291CC2B21720FFF7F6F9002007B072
:1032900030BDC046000080BF0000204130B5081C92
:1032A00087B00C1CFEF764FFE368051CDB68812017
:1032B000DB68C00559689A6800230093019003A851
:1032C00002F01EF8201C02F00CF8039804F0FCFC3D
:1032D000291CC2B24320FFF7CFF9002007B030BD50
:1032E00030B5081C87B00C1CFEF742FFE368051CD4
:1032F000DB680C48DB6859689A68002300930190EA
:1033000003A801F0FDFF201C01F0EBFF039804F07F
:10331000DBFC291CC2B20220FFF7AEF9002007B087
:1033200030BDC0460000204108B5081C01F0D9FF9F
:103330000E20FF210122FFF79FF9002008BD08B5EC
:10334000081C01F0CEFF0E20FF210022FFF794F9A8
:10335000002008BD08B5081C01F0C3FFFEF70EFFF2
:10336000002008BD38B5081C0C1CFEF701FF051C29
:10337000201C01F0B6FF291C2B20FFF71DF90821A6
:103380000422064802F048FCFFF7BAF90A22011CA1
:10339000034802F060FE002038BDC0464004002013
:1033A0007C06002038B5081C0C1CFEF7E1FE051C4D
:1033B000201C01F096FF291C2A20FFF7FDF80821A8
:1033C0000422064802F028FCFFF79AF90A22011CA1
:1033D000034802F040FE002038BDC04640040020F3
:1033E0007C06002038B5081C0C1CFEF7C1FE051C2D
:1033F000201C01F076FF291C2920FFF7DDF80821A9
:103400000422064802F008FCFFF77AF90A22011CA0
:10341000034802F020FE002038BDC04640040020D2
:103420007C060020F7B5081C0C1CFEF7A1FE0190DD
:10343000201C01F056FF01993020FFF7BDF8022053
:10344000FEF76EFEFFF77AF91B4D071C0A22391CA6
:10345000281C02F0F2FD194C281C211C02F08CFDE6
:10346000FFF73CF9002631200199FFF7A5F8144831
:103470000821382202F0D0FB0024BE4210D2FFF710
:103480006DF90621FEF77CFE281C0C4902F074FD44
:10349000E30701D5731C9EB201340E2CEDD1E2E797
:1034A00000220E20FF21FFF7E7F8281C054902F053
:1034B00075FD0020FEBDC0467C060020D0A30000A4
:1034C000400400201AA8000070B5081C0C1CFEF770
:1034D0004FFEE368061CDB68DB689968586801F0FA
:1034E00005FF051C201C01F0FCFE311C2A1C0A20D3
:1034F000FFF7C2F8002070BD70B5081C0C1CFEF769
:1035000037FEE368061CDB68DB689968586801F0E1
:10351000EDFE051C201C01F0E4FE311C2A1C0920D4
:10352000FFF7AAF8002070BD70B5081C0D1CFEF74F
:103530001FFEEB68041CDB68DB685868996801F0C3
:10354000D5FE061C281C01F0CCFE201C002E03D04A
:1035500001F030FD412002E001F042FD4220211C3B
:10356000FFF72AF8002070BD70B5081C0C1CFEF790
:10357000FFFDE368051CDB68DB685868996801F0AB
:10358000B5FE061C201C01F0ACFE281C002E02D04B
:1035900001F03CFD01E001F04DFD002070BD70B573
:1035A000081C0C1CFEF7E4FDE368051CDB68DB6807
:1035B0005868996801F09AFE061C201C01F091FEE3
:1035C000281C002E02D001F0A5FC01E001F0B6FCA1
:1035D000002070BD38B5081C0C1CFEF7C9FD051C89
:1035E000201C01F07EFE281CFFF7ECF8002038BDFF
:1035F00038B5081C0D1CFEF7BBFD041C281C01F08F
:1036000070FE201C01F022FC051E02D0201C01F0DF
:10361000E7FCFFF763F8211C4420FEF7CDFF3220C2
:1036200002F054FC0E20FF210022FFF725F8002DA8
:1036300002D0201C01F0BEFC002038BD38B5081CAB
:103640000C1CFEF795FD051C201C01F04AFE281CF1
:1036500001F088FC002038BD38B5081C0C1CFEF7B2
:1036600087FD051C201C01F03CFE281C01F08EFC8F
:10367000002038BDCB6810B5DB681048DB6886B029
:103680009A680C1C596800230093019003A801F06C
:1036900037FE201C01F025FEE368DB685B68587983
:1036A0003038C0B202F008F8039804F00DFBC0B245
:1036B00002F066F8002006B010BDC0460000FE42D1
:1036C00038B5081C0C1CFEF753FD051C201C01F02E
:1036D00008FE281C01F0ECF80521FEF751FD034916
:1036E000034802F05BFC002038BDC0461AA8000069
:1036F0007C06002038B5081C0C1CFEF739FD051CA3
:10370000201C01F0EEFD281C01F0B6F80521FEF7A3
:1037100037FD0349034802F041FC002038BDC04694
:103720001AA800007C06002038B5081C0C1CFEF707
:103730001FFD051C201C01F0D4FD281C01F0CCF855
:103740000A22011C024802F086FC002038BDC04657
:103750007C06002038B5081C0D1CFEF709FD041C72
:10376000281C01F0BEFD631EDBB2012B02D8201C19
:1037700002F0BCF8002038BD38B5081C0D1CFEF75F
:10378000F7FC041C281C01F0ACFD631EDBB2012B0E
:1037900002D8201C02F0B8F8002038BDCB6830B544
:1037A000DB680C1CDB6887B059689A680C4B03A86F
:1037B00000930C4B0193002301F0A2FD201CFEF7A7
:1037C000D7FC051C201C01F08CFD6B1EDBB2012B0D
:1037D00003D8281C039902F067F8002007B030BD19
:1037E000000020C000002040CB6870B5DB681248A4
:1037F000DB6886B09A680D1C59680023009301901D
:1038000003A801F07DFD281C039EFEF7B1FC041CFB
:10381000281C01F066FD012C01D1084802E0022CB1
:1038200007D10748311C01F0A3FA011C201C02F04B
:103830003BF8002006B070BD0000AA427C030020C7
:10384000B403002038B5081C0C1CFEF791FC051CC5
:10385000201C01F046FD281C00F0C2FF0A22011CBA
:10386000024802F0EEFB002038BDC0467C06002076
:1038700038B5081C0C1CFEF77BFC051C201C01F055
:1038800030FD281C00F09CFF0A22011C024802F0B7
:10389000D8FB002038BDC0467C06002030B5081C8F
:1038A00087B00C1CFEF764FCE368051CDB68802015
:1038B000DB68C0059A68596800230093019003A84B
:1038C00001F01EFD201C01F00CFD281C039900F0E6
:1038D00097FF002007B030BD30B5081C87B00C1C26
:1038E000FEF746FCE368051CDB680A48DB689A685B
:1038F000596800230093019003A801F001FD201CEA
:1039000001F0EFFC281C039900F088FF002007B0AD
:1039100030BDC0460000C84238B5081C0C1CFEF77C
:1039200027FC051C201C01F0DCFC281C002100F0F9
:10393000EBFF002038BD38B5081C0C1CFEF718FC46
:10394000051C201C01F0CDFC281C012100F0DCFF2F
:10395000002038BD30B5081C87B00C1CFEF708FCF1
:10396000E368051CDB680B48DB689A68596800232C
:103970000093019003A801F0C3FC201C01F0B1FCEE
:10398000039804F0A1F9011C281C00F055FF002049
:1039900007B030BD00007F4308B50368C9B21B689B
:1039A000984708BDF0B5FE4D85B0281C01F0F0FB2E
:1039B00005230193FB4AFC4B0092029328680021E7
:1039C000052301F0C1FBF94AF94B0424009202934C
:1039D0000194231C2868002101F0B6FBF54B002759
:1039E000009301940297391C2868F34A062301F0DA
:1039F000ABFBF24B01940093F14B01210293F14A8E
:103A00000723061C01F0A0FBEF4B01940093EF4B42
:103A1000301C02930121EE4A072301F095FBED4B88
:103A2000019400930297391C2868EB4A072301F0A0
:103A30008BFBE24B01940093E84B01210293E14A96
:103A40000723061C01F080FBE54B01940093E54B36
:103A5000301C02930121E44A072301F075FB032384
:103A6000E24A0193E24B00920293301C01210323AE
:103A700001F06AFB0323DF4A0193DF4B00920293BC
:103A8000301C0121032301F05FFBDC4B0194009308
:103A9000DB4B301C02930121DA4A092301F054FB6D
:103AA000D94B01940093D94B301C02930121D84A81
:103AB000092301F049FBD74B01940093D64B301CEE
:103AC00002930121D54A072301F03EFBD44B019418
:103AD0000093D44B301C02930121D34A072301F0F9
:103AE00033FBD24B019400930297391C1A1C2868AF
:103AF000231C01F029FBCE4B01940093CD4B0121F7
:103B00000293CD4A072301F01FFBCC4A0223009207
:103B100001930297391C286801F016FBC84B0194E9
:103B20000093C84B01210293C74A0523061C01F0EC
:103B30000BFBC64AC64B009202930194231C301C17
:103B4000012101F001FBC34B01940093C24B301CD7
:103B500002930121C14A092301F0F6FAC04B0194F6
:103B60000093C04B301C02930121BF4A0A2301F08D
:103B7000EBFABE4ABE4B009202930194231C301C08
:103B8000012101F0E1FABB4B01940093BA4B301CC8
:103B900002930121B94A072301F0D6FAB84B0194E8
:103BA0000093B84B301C02930121B74A062301F061
:103BB000CBFA9E4B01940093B44B301C029301212D
:103BC000231C9A4A01F0C0FAB14B0194009302976A
:103BD000391C2868AF4A052301F0B6FAAE4B0194B0
:103BE0000093AE4B01210293AD4A0723061C01F05E
:103BF000ABFAAC4B01940093AB4B301C0293012108
:103C0000AA4A082301F0A0FAA94B01940093A94BFA
:103C1000301C02930121A84A072301F095FAA74A14
:103C20000323009201930297391C286801F08CFA53
:103C3000A34B01940093A34B01210293A24A0623B4
:103C4000061C01F081FAA14B01940093A04B301C9B
:103C5000029301219F4A082301F076FA9E4B0194BA
:103C600000939E4B301C029301219D4A072301F0D3
:103C70006BFA9C4B019400939B4B301C02930121E7
:103C80009A4A072301F060FA994B01940093994BEB
:103C9000301C02930121984A072301F055FA974BF3
:103CA00001940093964B301C02930121954A062300
:103CB00001F04AFA944B01940093944B301C029308
:103CC0000121934A052301F03FFA924B019400939E
:103CD000914B301C02930121904A0A2301F034FADF
:103CE0008F4B019400938F4B301C029301218E4A1D
:103CF0000A2301F029FA8D4B019400938C4B301C60
:103D0000029301218B4A0A2301F01EFA8A4B019487
:103D100000938A4B301C02930121894A0A2301F047
:103D200013FA884B01940093874B301C02930121B6
:103D3000864A0A2301F008FA854B01940093854BCB
:103D4000301C02930121844A0A2301F0FDF9834BC0
:103D500001940093824B301C02930121814A0C2371
:103D600001F0F2F9804B01940093804B301C0293D8
:103D700001217F4A0C2301F0E7F92D4B01940093B8
:103D80000297391C28687B4A082301F0DDF97A4A3A
:103D90007A4B009202930194231C0121061CEFE050
:103DA000EC030020D2A30000C1280000D8A300002B
:103DB000DD280000E4A30000DDA30000E9A300006B
:103DC00009300000EAA60000F7A3000065330000F8
:103DD000EEA3000005A40000FDA30000492B000095
:103DE0000AA40000912B0000DAA600000FA4000036
:103DF000DD29000013A40000032A000021A4000014
:103E0000292A000017A4000030A40000592A00004D
:103E100026A400003DA40000B92A000035A400003B
:103E20004AA40000012B000042A4000038A40000B6
:103E300057A40000D53500004FA400005CA400008A
:103E40005FA40000553000006DA4000064A40000D1
:103E50009D30000073A40000C934000069A4000074
:103E600083A40000F934000078A4000088A40000B6
:103E7000E530000095A40000A12900008DA40000F9
:103E80009AA40000892A00001AA40000253400002A
:103E9000A5A400009FA40000B2A4000029350000E2
:103EA000AAA40000C0A4000069350000B7A4000067
:103EB000CDA400009F350000C5A40000D2A40000DE
:103EC000DDA40000992E0000D6A40000EBA40000A1
:103ED000E9370000E2A40000F0A400003929000046
:103EE00032A50000F5A400006D29000042A50000E5
:103EF000FAA400005537000009A70000FFA4000045
:103F000079370000FAA600000AA500009D370000DE
:103F100004A500001AA50000D92B00000FA5000081
:103F20002AA50000312C00001FA500003AA50000C2
:103F3000892C00002FA500004AA50000E12C0000FC
:103F40003FA500005AA50000392D00004FA5000034
:103F50006AA50000912D00005FA500007CA500006F
:103F6000E92D00006FA500008EA50000412E000085
:103F700081A5000093A500009CA500009D320000D3
:103F800001F0E2F8FD4B01940093FD4B301C0293CD
:103F90000121FC4A072301F0D7F8FB4B0194009361
:103FA000FA4B301C02930121F94A082301F0CCF8A6
:103FB000F84B01940093F84B301C02930121F74A0F
:103FC0000D2301F0C1F8F64B01940093F54B301C22
:103FD00002930121F44A0D2301F0B6F8F34AF44BA1
:103FE000009202930194231C301C012101F0ACF8D3
:103FF000F04B01940093F04B301C02930121EF4AE7
:104000000B2301F0A1F8EE4AEE4B009202930194CB
:10401000231C301C012101F097F8EB4B301C00935E
:1040200002230193E94B01210293E94A0A2301F09B
:104030008BF8E84B01940093E74B301C029301216D
:10404000E64A052301F080F8E54B01940093E54B27
:10405000301C02930121E44A052301F075F8E34B7B
:10406000019400930297391C2868E14A0B2301F060
:104070006BF8E04B0121009306230193DE4BDF4AEE
:1040800002930923061C01F05FF8DD4B01940093B5
:10409000DC4B301C02930121DB4A072301F054F86A
:1040A000DA4B301C009305230193D94B0121029375
:1040B000D84A092301F048F8C34B301C009302236F
:1040C0000193D54B01210293C14A0A2301F03CF828
:1040D000D24B301C009303230193D14B0121029357
:1040E000D04A0D2301F030F8CF4B301C009303234E
:1040F0000193CE4B01210293CD4A0E2301F024F807
:10410000CC4A0323009201930297391C286801F0DE
:104110001BF80623C84A0193C84B00920293012161
:104120000623061C01F010F8C54B0194009302977A
:10413000301C0121C34A0D2301F006F8C24B0121B6
:10414000009306230193C14BC14A02930623061C28
:1041500000F0FAFFBF4B301C009306230193BE4BC7
:1041600001210293BD4A062300F0EEFFBC4B301C38
:10417000009306230193BB4B01210293BA4A072304
:1041800000F0E2FFB94B01940093B94B301C02934D
:104190000121B84A092300F0D7FF8E4B0194009308
:1041A0000297391C2868B44A082300F0CDFFB34BAE
:1041B00001940093B24B01210293B24A0523061CDD
:1041C00000F0C2FFB04B01940093B04B301C02933F
:1041D0000121AF4A0A2300F0B7FFAE4B01940093D0
:1041E000AD4B301C02930121AC4A0A2300F0ACFF16
:1041F000AB4B01940093AB4B301C02930121AA4AB4
:104200000A2300F0A1FFA94B01940093A84B301C96
:1042100002930121A74A0A2300F096FFA64B0194BE
:104220000093A64B301C02930121A54A092300F0FC
:104230008BFFA44B01940093A34B301C02930121EC
:10424000A24A0A2300F080FFA14B301C00930623F2
:104250000193A04B012102939F4A0A2300F074FFAF
:104260009E4B019400939E4B301C029301219D4A6A
:10427000052300F069FF9C4B019400939B4B301C7D
:10428000029301219A4A062300F05EFF994B0194A4
:104290000093994B301C02930121984A052300F0AA
:1042A00053FF974B01940093964B301C02930121CE
:1042B000954A0A2300F048FF944B01940093944BD5
:1042C000301C02930121934A082300F03DFF5C4B10
:1042D0002868391C0093019402978F4A052300F047
:1042E00033FF5C4B019400938C4B012102935B4A9A
:1042F0000623051C00F028FF594B01940093884BBE
:10430000281C02930121584A072300F01DFF854B0A
:1043100001940093844B281C02930121834A0823B3
:1043200000F012FF824B05260093824B0196029308
:10433000281C0121804A0A2300F006FF424B019409
:1043400000937E4B281C029301217D4A082300F034
:10435000FBFE7C4B019400937B4B281C02930121B4
:104360007A4A072300F0F0FE794B01940093794BD1
:10437000281C02930121331CEEE0C046E9A3000093
:1043800029310000EAA60000AAA50000E92E0000DD
:10439000A1A50000BDA5000071310000AFA500007F
:1043A000D0A50000AF310000C2A50000D5A50000D7
:1043B000E1320000E6A50000352F0000DAA500007C
:1043C000EBA50000ED31000067A600004D320000B3
:1043D0005BA60000F6A50000BF290000F0A50000C4
:1043E00001A600007D2F0000FBA5000012A6000022
:1043F00006A6000021A60000A545000017A60000A3
:1044000030A600002546000028A600003FA60000B8
:104410007536000035A60000C136000053A6000026
:10442000F536000045A6000066A60000293700000A
:1044300057A600006AA600006EA60000B146000064
:1044400083A6000075A600008FA60000F14B0000B7
:1044500088A60000FFA40000CD4C0000FAA60000D2
:10446000FAA40000F14C000009A700009EA600007D
:10447000154D000094A60000A3A60000B2A60000FF
:1044800079280000ACA60000C2A600009128000018
:10449000B7A60000D2A60000A5330000C7A6000002
:1044A000E2A60000E5330000D7A60000F2A6000057
:1044B000BD2F0000E7A6000001A7000001290000B1
:1044C000F7A6000011A700001329000006A70000AE
:1044D00021A700005533000016A700002EA70000FA
:1044E0002933000028A700003AA700003F3300004E
:1044F00033A7000045A70000252900003FA70000C2
:1045000055A70000A52800004AA700005EA70000EC
:10451000F13500005AA7000063A700003D360000F7
:104520005936000072A700007138000069A700002A
:1045300082A700004538000077A700009D380000E2
:1045400088A700009BA70000D938000091A70000B1
:10455000A0A70000193900000C4A00F0F5FD0C4B33
:10456000019600930B4B281C029301210A4A0A234F
:1045700000F0EAFD094A0A4B009202930194281CBC
:104580000121032300F0E0FD05B0F0BDAAA7000063
:10459000B0A7000037390000A5A700008BA60000D7
:1045A00055390000CB6830B5DB681B48DB6887B045
:1045B000DB680C1C9A68596800230093019003A8DB
:1045C00000F09EFE201CFDF7D3FD051C201C00F012
:1045D00088FEE368DB68DB685B6858793038C0B216
:1045E00001F06AF8039803F06FFB291CC0B201F0D8
:1045F00079F80A4C0112051CC9B2201C02F028F8F7
:10460000E9B2201C02F024F8201C054901F0C6FC88
:10461000002007B030BDC0460000FE427C060020EE
:104620001AA80000CB6830B5DB681C48DB6887B08F
:10463000DB680C1C9A68596800230093019003A85A
:1046400000F05EFE201CFDF793FD051C201C00F011
:1046500048FEE368DB68DB685B6858793038C0B2D5
:1046600001F02AF8039803F02FFB291CC0B201F0D7
:1046700039F80B4C0112051CC9B2201C01F0E8FFEF
:10468000E9B2201C01F0E4FF0649201C01F086FC81
:10469000054801F019F8002007B030BD0000FE42C7
:1046A0007C0600201AA80000400100200000000045
:1046B00038B5081C0C1CFDF75BFD051C201C00F028
:1046C00010FE3B4C7021201C01F052FA201C291EC8
:1046D000012900D00221FFF75FF9201C01F0FFFA49
:1046E000201C482101F044FA201C0121FFF754F955
:1046F000201C0421FFF750F98721201CFFF74CF9FB
:10470000201C01F0ECFA022001F0E0FB201C482103
:1047100001F02EFA0021201CFFF73EF9201C01F0C9
:10472000DEFAC8239B00013BFDD1214C4821201C0F
:10473000022201F071FA00282ED0201C01F0D4FAD8
:10474000051C201C01F0D0FAFF231D402D02034060
:104750002B43580905F09AFB124B114A04F0DCFD7B
:1047600005F024FC05F0D0FB0F4A104B04F072F961
:1047700005F01CFC0521FDF703FD0E490E4801F074
:104780000DFC201C702101F0F3F9201C0021FFF723
:1047900003F9201C01F0A3FA002038BDC046C04632
:1047A0004E5E64027E8D943F68D0D03FC1C5B23F5B
:1047B000400400201AA800007C060020C046C04625
:1047C00008B5031C1020012B03D00020022B06D1BA
:1047D0000F2003F0A3F8013843425841C0B208BD8E
:1047E00008B5031C0220012B03D00020022B06D1A8
:1047F000052003F093F8013843425841C0B208BD88
:10480000012802D1044B5B6803E0022802D1024B6D
:104810009B68D9607047C046F8030020012802D188
:10482000044B5B6803E0022802D1024B9B6899604D
:104830007047C046F803002001280CD10A4B1960CC
:104840000A4B9B68DA05FBD4094B8000C358187CDF
:104850000028F1D170470228F6D1064B1960034BAE
:104860009B689A05FBD4EFE74424004200240042F1
:10487000F80300204824004210B5041C2D20012C10
:1048800002D0022C0ED12C20FDF726FD0420FDF7CE
:1048900047FCFDF763FF044BA400E358996803F05D
:1048A00073FD00E0014810BDF8030020000080BF48
:1048B00008B5012801D12D2002E0022808D12C20C2
:1048C000FDF70AFD0420FDF72BFCFDF747FF00E094
:1048D000004808BD000080BF08B5031E012B06D1AB
:1048E0002F20FDF7F9FC0420FDF71AFC08E000205A
:1048F000022B07D10420FDF713FC2E20FDF7ECFC62
:10490000FDF7FEFE08BD0000F0B585B00C1C009060
:1049100001F0D6FA00994C4B8E00F7584B4B396892
:10492000051C421A9A4201D8002C14D001F0C8FA92
:10493000454A386096597368ED1AFA239B009D42E8
:1049400001D8002C07D001F0BBFA70600098FFF787
:1049500037FF002805D13E493E4801F01FFB05B056
:10496000F0BD0098FFF73CFF0028F4D03A490191D0
:104970000098FFF781FF009A334F9600F359354DA9
:104980000A2259690290281C01F06FFBF459029821
:10499000E368191C039303F021FE4000400805F072
:1049A000B3FA284B264A03F02DF90028D3D16569C4
:1049B00029498D4208D10298039903F05DF9002836
:1049C0000FD00098244909E0002D0AD102980399DC
:1049D00003F066F9002804D00098291CFFF72CFF8B
:1049E000B9E70298039903F05BF9002801D0013D73
:1049F00000E0013565610A226169164801F035FB66
:104A00001649144801F0B8FABB5913495A698A4249
:104A100000D9596159690098FFF70EFFBB595B69CE
:104A2000012B98D00C4A934200D194E70A2001F060
:104A30004DFA019B013B0193002B99D18BE7C046B6
:104A40007B14AE47E17A843FF80300201027000072
:104A50001AA800007C060020FF030000D0A300007D
:104A6000F8B5182001F070FA0C4F0D4DFE26002409
:104A7000B605FF238760C660046044600474686004
:104A80004361182001F060FAFF238760C66004606C
:104A9000446004744361A860F8BDC0468FC2DDC0A5
:104AA000F803002010B5134C0120211C00F0F2FD8A
:104AB000201C602101F05CF8201C0021FEF76CFF37
:104AC0002021201CFEF768FF201C01F008F9201CA3
:104AD000602101F04DF8201C0121FEF75DFF13213C
:104AE000201CFEF759FF201C01F0F9F8201C00F0F3
:104AF000EBFD10BD40040020F7B5FFF7D3FF394CA4
:104B00000120211C00F0C6FD201C602101F030F8BE
:104B1000201C0621FEF740FF334D34492B685868AE
:104B200003F032FC03F0CAFE6B68071C2F4958687B
:104B300003F02AFC03F0C2FEAB68061C2B49586840
:104B400003F022FC03F0BAFEEB6801902749586895
:104B500003F01AFC03F0B2FE0021051C201CFEF736
:104B60001BFF201C0021FEF717FF391C201CFEF73D
:104B700013FF3912201CFEF70FFF201C0021FEF747
:104B80000BFF201C0021FEF707FF311C201CFEF745
:104B900003FF3112201CFEF7FFFE201C0021FEF750
:104BA000FBFE201C0021FEF7F7FE0199201CFEF7FA
:104BB000F3FE019B201C1912FEF7EEFE201C0021C3
:104BC000FEF7EAFE201C0021FEF7E6FE291C201C51
:104BD000FEF7E2FE2912201CFEF7DEFE201C01F08B
:104BE0007EF8F7BD400400200404002000F07F455B
:104BF000CB6810B5DB68FE20DB6886B0DB680C1C78
:104C00009A685968800500230093019003A800F07A
:104C100077FBE368DB68D868FDF78CFA054B013851
:104C20008000C358039A5A60FFF766FF002006B061
:104C300010BDC0460404002038B5082001F084F9F6
:104C4000094C012505702060082001F07DF90570F0
:104C50006060082001F078F90570A060082001F07C
:104C600073F90570E06038BD0404002010B5154CE0
:104C70000120211C00F00EFD201C382100F078FFDF
:104C8000114B1868417858684A1E91414278AA3100
:104C9000002A02D004221143C9B298684278002A3F
:104CA00002D010221143C9B2DB685B78002B02D01E
:104CB00040231943C9B2201C00F0B3FF201C01F0AF
:104CC0000EF810BD400400200404002008B5CB6895
:104CD000DB68D868FDF72EFA044B8000C358012228
:104CE0005A70FFF7C3FF002008BDC046040400202F
:104CF000CB6810B5DB680024D868FDF71BFA044BBD
:104D00008000C3585C70FFF7B1FF201C10BDC04687
:104D10000404002038B5144D0C1C0120291C00F09F
:104D2000B9FCE368DB68D868FDF704FA3821012292
:104D3000041C281C00F070FF281C00F0D5FF402345
:104D4000C1B2012C09D01023022C06D0032C01D1B2
:104D5000042302E0042C01D1012319400A22034854
:104D600001F08DF9002038BD400400207C060020B1
:104D7000F7B5041C006903F031FC051C01F0A0F834
:104D8000A368C01A03F016FE071C391C281C03F088
:104D9000FBFA616802F0B0FF21686060061C281C05
:104DA00003F01CFC391C03F00BF9274903F008F948
:104DB000237B071C281C002B16D0616903F0E4FA42
:104DC000A1690190301C03F0DFFA011C019802F088
:104DD00093FFE169061C381C03F0D6FA011C301C55
:104DE00002F08AFF216A15E0616A03F0CDFAA16A38
:104DF0000190301C03F0C8FA011C019802F07CFFFE
:104E0000E16A061C381C03F0BFFA011C301C02F0DA
:104E100073FF216B02F070FF0021061C02F02CFFD3
:104E2000002809D1FE21301C890502F039FF002835
:104E300003D0FE26B60500E0002601F041F8A06090
:104E40002560301CFEBDC04600007A4401230828BE
:104E500004DC0822101A8340044A03E01022101ACE
:104E6000034A8340107818407047C046140400205D
:104E70001804002013B500231F4C6A4653711371A8
:104E80001E49019A201C009100F0A8FD1920012163
:104E900002F014FD1A4B201C197800F0CDFD194BBF
:104EA000201C197800F0C8FD174B201C197800F061
:104EB000C3FD164B201C197800F0BEFD144B201CBE
:104EC000197800F0B9FDA0235B00013BFDD106205D
:104ED000012102F0F3FCA0235B00013BFDD1062081
:104EE000002102F0EBFC0021192002F0E7FC02484F
:104EF00000F090FD13BDC0463004002040420F007A
:104F000015040020170400201804002014040020B9
:104F10001604002008B5012803D1074B0C211A788C
:104F200004E0022804D1044B04211A780A431A70C1
:104F3000FFF7A0FF08BDC0461604002008B50128F1
:104F400003D1074B0C211A7804E0022804D1044B4A
:104F500004211A788A431A70FFF78CFF08BDC046F7
:104F60001604002008B5012803D1074B02211A7846
:104F700004E0022804D1044B01211A780A431A7074
:104F8000FFF778FF08BDC0461604002008B50128C9
:104F900003D1074B02211A7804E0022804D1044B04
:104FA00001211A788A431A70FFF764FF08BDC046D2
:104FB0001604002008B50122082802DC064B08214F
:104FC00001E0064B1021081A197882400A431A7032
:104FD000FFF750FF08BDC04614040020180400204D
:104FE00008B50122082802DC064B082101E0064B27
:104FF0001021081A8240101C1A7882431A70FFF799
:1050000039FF08BD140400201804002008B501224F
:10501000082802DC054B013801E0054B09381978F6
:1050200082400A431A70FFF725FF08BD17040020CD
:105030001504002008B50122082802DC064B0138BF
:1050400001E0064B09388240101C1A7882431A701E
:10505000FFF710FF08BDC04617040020150400200C
:10506000054A08B500231370044A1370044A1370EC
:10507000FFF700FF08BDC0461604002014040020FE
:1050800018040020F0B5002785B0061C00913D1CD7
:1050900001973C1C009B9C4224D0335D3A2B05D0E9
:1050A000202B03D0009B013B9C4219D1102005F01E
:1050B0006DF800230370C360009BF219013BE71BEE
:1050C000426087609C4201D101378760002D01D08A
:1050D000E86000E00190335D671C051C202B01D0C7
:1050E0000134D7E7012701347F42009B9C4228D23C
:1050F000335D02937B1C05D1029805F031F800283E
:1051000000D1271C009B013B0393029B2C2B02D058
:10511000039B9C4213D1102005F038F80123037043
:10512000F31943600023C360039BE71B87609C4225
:1051300001D1013787600127E8607F42051C0134F7
:10514000D3E7019805B0F0BDF8B5051C171C1E1C6F
:10515000041C012900D14469002C04D11C2005F055
:1051600015F8686108E02369002B01D01C1CFAE7E0
:105170001C2005F00BF82061002303614361069BAE
:1051800007608360079B4660C360089B8361F8BD2E
:10519000F0B5051C87B01C2004F0F8FF1B4B002461
:1051A000042728600121046044608460C460846135
:1051B00004614461164A0093019702940623FFF7A5
:1051C000C3FF144B02940093032301930121124A5D
:1051D0000523061CFFF7B8FF104B0197104F0590F1
:1051E00000930297301C01210E4A0623FFF7ACFF03
:1051F0000D4A052300920193029705980121FFF7BC
:10520000A3FF6C60AC6007B0F0BDC046BDA7000056
:10521000B6A70000C8A70000C2A70000D3A70000DF
:105220004D560000CCA70000D8A7000070B5046858
:105230000D1C0023002D03D15B42201C18402AE0E6
:105240002A78002AF8D1002C09D1ED6807E0AE6871
:1052500063689E4206D0E3689E420FD02469002C0A
:10526000F5D113E068682168321C04F0A3FF002820
:10527000F1D16269ED68002A0AD107E06868A16887
:10528000321C04F097FF0028E8D1F2E7201C02E06E
:105290000123141CCEE770BD38B5051C081C111C79
:1052A000FFF7F0FE041C211C281CFFF7BFFF00289D
:1052B00006D08369002B05D0281C211C984702E0EA
:1052C000FF2000E0FE2040B238BD38B50C1C00289D
:1052D00006D0A04204D0C56804F062FF281CF6E79F
:1052E00038BD08B50021FFF7F0FF08BD031C002002
:1052F000012904D11878313843425841C0B270476F
:10530000F0B58DB009910A920E1C05920021002281
:10531000071C0B930191029108910C1C06910791B7
:105320000D1C04920599002900D111E1002D4FD1E7
:105330003378181C039304F013FF002800D002E117
:10534000059906291CD9039A442A1CD17378452B48
:1053500000D0F6E0B378462B00D0F2E0F378412B92
:1053600000D0EEE03379552B00D0EAE073794C2B76
:1053700000D0E6E0B379542B00D0E2E00B9B0DE0C7
:105380000599022918D9039A4D2A15D17378412B12
:1053900006D1B378582B00D0D3E0139B3B6008E0D4
:1053A000492B00D0CDE0B3784E2B00D0C9E0129944
:1053B000396000237B6007E1039A2B2A0AD02D2A4B
:1053C00008D0131C303B092B00D9BAE002250BE0B2
:1053D000012D06D133782B3B191C4B1E99410791A7
:1053E000F6E0AB1E012B1FD833781A1C303A03921B
:1053F000092A13D80498794902F0C6FF049003984B
:1054000003F07CFA011C049802F076FC0490032D52
:1054100000D0DDE0069B0133069394E02E2B00D1F3
:1054200088E0652B1AD187E0042D0AD133782B2B25
:1054300000D188E02D2B00D1CCE0303B092B02D9E4
:105440007FE0052D08D13378303B092B06D80A229E
:1054500054430525E41876E0062D06D1307804F093
:105460007FFE062500286ED101E0072D51D133784B
:10547000181C4338372846D802F054FB33313F45D7
:105480003945454545453745453D4545453B4545F8
:105490004545434145454545454521452D2F452336
:1054A0004545454535452B27452545454545294530
:1054B00045451C1E183C00E0153C082543E0123C05
:1054C000FBE70F3CF9E70C3CF7E7093CF5E7063C46
:1054D000F3E7033CF1E7023CEFE7013CEDE7013481
:1054E000EBE70234E9E70334E7E70634E5E709349C
:1054F000E3E70C34E1E70F34DFE71234DDE715347E
:10550000DBE71834D9E7181C04F034FE002802D178
:1055100017E0082D17D1307804F018FE002804D0C9
:10552000029900290AD1029608E0029A002A07D1BE
:10553000019206E0032506E0042504E0092502E0C7
:10554000019601256D42059B0136013B0593E9E675
:10555000029A002A07D0019B002B04D10A9B0999CB
:10556000013BCB180193089A002A00D06442069BA5
:105570000120E41A0023002C0BDD0A2201335043E2
:10558000A342FAD103F0BAF9011C049802F0FCFE20
:105590000BE0002C03D00A2358430134F9E703F051
:1055A000ADF9011C049802F00BFD0799002902D007
:1055B000802212068018029B38607B60002B03D08B
:1055C0000199029A8B1A0133381CBB600DB0F0BDF3
:1055D0000225B8E701230893B5E7C0460000204143
:1055E00084B010B5041C102004920593039104F0BC
:1055F000CDFD039B00220360049BC2604360059BBA
:1056000083606368934202D0A268D06000E060606B
:10561000A06010BC08BC04B01847000010B5446876
:10562000002C09D1102004F0B1FD074B0460436049
:1056300008238360041C04E0E3684360002B00D16E
:105640008360201C10BDC046DEA7000070B50E1C94
:10565000FFF7E4FF0C4C051C29680A22201C00F00F
:10566000ECFC201C094900F087FCAA686968201C32
:1056700001F004F80649201C00F090FC301CFFF7F4
:1056800030FE002070BDC0467C060020E7A7000069
:10569000E8A7000038B5051C0C1C081C702100F0A0
:1056A00067FA201C291E012900D00221FEF774F997
:1056B000201C00F014FB38BD08B50249FFF7EAFFD3
:1056C00008BDC0464001002010B57021041C00F048
:1056D0004FFA0021201CFEF75FF9201C00F0FFFAB2
:1056E00010BD000070B5061C03290BD8081C02F081
:1056F00019FA08020406502504E0602502E070252E
:1057000000E040251C4C311C201C00F031FA012126
:10571000201CFEF741F97B2149420D43E9B2201CD0
:10572000FEF73AF98721201CFEF736F9201C00F01D
:10573000D6FA022000F0CAFB201C311C00F018FA37
:105740000021201CFEF728F9201C00F0C8FA201CBC
:10575000311C022200F060FA002398420AD0201C7B
:1057600000F0C2FA051C201C00F0BEFAEDB22D02BA
:10577000C3B22B4318B270BD4001002000000000EE
:10578000F8B5354C051C291C201C00F0F1F9201C33
:105790000221FEF701F9201C3021FEF7FDF800215F
:1057A000201CFEF7F9F8201C00F099FA201C291C97
:1057B00000F0DEF90021201CFEF7EEF8201C00F0BE
:1057C0008EFA142000F082FB0422291C201C00F019
:1057D00023FA201C00F088FA051C201C00F084FA33
:1057E0002D02284303F08AF81C4902F0E9FB04F07B
:1057F0008BFB164B144A03F08FFD154A154B04F032
:105800001BF804F0D3FB0621FCF7BAFC144E154D2F
:10581000301C291C00F0C2FB201C00F065FA071C9C
:10582000201C00F061FA3F02384303F067F80B498F
:1058300002F0C6FB0421FCF7A3FC301C291C00F07D
:10584000ADFBF8BDC046C0460000000000A06440AB
:105850000000000000004440400100208003804719
:105860007C0600201AA800000B4B8200D3581B783E
:10587000012B10D1012806D1084B1960084B9B68F9
:105880009A05FBD407E0022805D1064B1960044BAA
:105890009B685A05FBD470471C0400204820004236
:1058A000002000424C20004238B5051C0C1C081C8E
:1058B000FE21890502F0F4F9002807D1201C0021FF
:1058C00002F0DAF9002803D0002401E0FE24A40548
:1058D0000549201C02F058FD02F0F6F9011C281CB5
:1058E000FFF7C2FF38BDC046FFFF7F4B10B5002158
:1058F000041CFFF7B9FF034BA400E35800221A7001
:1059000010BDC0461C04002010B50021041CFFF788
:10591000ABFF034BA400E35801221A7010BDC04630
:105920001C04002038B5012000F00EFB044C0025BB
:1059300005706060012000F007FB0570A06038BDB5
:105940001C040020437A002B04D18372C372C3600D
:1059500001234372704730B585B0041C02AD006866
:105960000291039200F010FC6B79E179227A0093A6
:105970002068002300F03AFD29792068029A00F09F
:10598000D3FB206800F0F6FB05B030BD70B5041CF9
:105990001826FFF7D7FF2079331C43430D4D08210C
:1059A000EB18595601F0D2FFA079331C434308216C
:1059B000EB18595601F0CAFF607908214643AD192A
:1059C000695601F0C3FF044B201C06CBFFF7C3FF51
:1059D00070BDC04698A800002804002007B5837A4F
:1059E00000910192002B0DD09A0706D5EFF310839A
:1059F0005A425341C37272B604E0DA0702D5828973
:105A0000034B9A600099019AFFF7A5FF07BDC046B6
:105A100000180040837A002B0BD09A0704D5C37A74
:105A2000002B06D062B604E0DA0702D58289014B6A
:105A3000DA6070470018004008B5006800F0ADFB60
:105A400008BD0000094B0A4A0A491A6000225A712F
:105A50001A71094B196016211971182199711721B2
:105A6000597101215A72D9711A72704728040020A5
:105A700000093D00600C0020300400200020704729
:105A8000F8B5051C0F1C161C0024B44208D02B6866
:105A9000395D1B68281C9847002801D00134F4E7C1
:105AA000201CF8BD7047031CFC33196ADA69914267
:105AB00003D01B6AC018007E01E0012040427047FD
:105AC000031CFC33D8691B6AC01A01D50130FF30B2
:105AD00070470000F7B50193FA239B008360134BD6
:105AE0008026002576000833041C0F1C4560291C05
:105AF00000920360321C183004F074FB231C9022C7
:105B0000FC335200DD61A0181D62321C291C04F018
:105B100069FB87229200A3185D60019A9D60009B3B
:105B20002761A575201C23756275FEBDF0A70000D6
:105B300070B50D49041C006900F07CFC206900F080
:105B400047FB1826207D331C4343084D0821EB18E2
:105B5000595601F0FBFE607D08214643AD19695698
:105B600001F0F4FE70BDC046A086010098A80000B8
:105B70008A2387229B009200C154831800225A6016
:105B80009A60012383757047031CFC335A6810B573
:105B900001329C68D2B2A24202D05C6801555A60C0
:105BA00010BDF7B501930023041C151C181C9A4264
:105BB00031D0221CFC32D36120691362012200F033
:105BC00043FB002825D0206900F0ADFB271C1837C7
:105BD000011C381CFFF7D8FF01262069AE420ED009
:105BE00000F012FB0221206900F018FB206900F090
:105BF0009AFB011C381CFFF7C7FF0136EDE700F0E8
:105C0000FBFA019B002B05D02069032100F006FB65
:105C100000E0051CE8B2FEBD08B50123FFF7C1FF97
:105C200008BD10B5827D00239A420DD08724A400C0
:105C30000219546892680134E4B2944204D02130CD
:105C4000FF30FFF7A1FF0123181C10BD031CFC331C
:105C500099685A68914206D09A68805C9A680132C5
:105C6000D2B29A6001E001204042704770B5002234
:105C70008A2382759B00041C0E1CC15C006900F025
:105C8000E3FA002805D12069032100F0C7FA0225B4
:105C900023E090235B00E01887239B00E218516803
:105CA0009368CB1A01D50133FF33002B0ED0256941
:105CB000FFF7CCFFC1B2281C00F0F5FA0028E8D1AC
:105CC0002069032100F0AAFA032506E01D1C002E1E
:105CD00003D02069032100F0A1FA281C70BD08B58B
:105CE0000121FFF7C3FF08BD08B51830FFF7AEFF6D
:105CF00008BD38B5041C006900F0F3FA002800D193
:105D000084E0206900F0FBFA00280ED1206900F041
:105D100000FB00281FD0206900F0F6FA00281AD0F6
:105D2000206900F0FBFA002815D1206900F06CFA18
:105D30002069032100F072FA8C239B00E558002DA6
:105D400004D02368201C1B699847A847FC34002313
:105D5000E36123625AE0206900F0DBFA031C20694A
:105D6000002B19D000F050FA2069032100F056FAF8
:105D7000206900F0D3FA002848D087229200A318A7
:105D800000225A609A600123A3758B239B00E3587D
:105D900093423BD0984739E000F0ACFA002835D068
:105DA000206900F0BBFA002816D087239B00E21878
:105DB00051689368CB1A01D50133FF33FF21002BC3
:105DC00005D090225200A018FFF740FFC1B2206911
:105DD00000F07AFAA07519E0231CFC33DA691B6A1B
:105DE0000132D2B220699A4202D100F005FA09E0EC
:105DF00000F099FA011C201C1830FFF7C5FE20693D
:105E000000F002FA2069032100F008FA38BD000012
:105E100008B50248FFF76DFF08BDC04640040020EA
:105E200008B50348034914221523FFF753FE08BDA4
:105E300040040020500C0020FEE7000008B5034B92
:105E40001B68002B00D0984708BDC0467406002090
:105E500038B50F490F4CA14204D100F015FB00F0FA
:105E600053F80BE00C4D8D42F7D00023CA18E81808
:105E7000A24204D2006804331060F7E7FEE79042C4
:105E8000EBD0064B064A9342E7D2002204C3F9E75F
:105E90000000002020010020E0AE000020010020D2
:105EA000840C002008B500F02CF8002801D100F087
:105EB0001DF808BD014B18607047C04674060020ED
:105EC000014B18687047C0467806002070B5041E64
:105ED00008D0054B1D681E1C00F012F833685B1BD0
:105EE000A342F9D370BDC0467806002008B5034B25
:105EF0001A6801321A6000F0DBF808BD780600204D
:105F0000704700207047704710B501F0D7FB04F0D0
:105F1000F7F8FFF7F8FF0120FFF7D8FF084C201C27
:105F200000F084FE201C00F0E1FEFCF7E7F9FCF72E
:105F3000B1F9044B002BFAD000E000BFF7E7C046F0
:105F4000430B00200000000008B504F01FF908BD55
:105F500008B50368C9B21B68984708BD38B5051C69
:105F60000C1C081E07D004F0F3F92B68021C5B68B8
:105F7000281C211C984738BD08B5FFF7EFFF08BD66
:105F800008B503681B68984708BD000008B50249BA
:105F9000FFF7E4FF08BDC04618A8000038B5041C90
:105FA000FFF7DCFF051C201CFFF7F0FF281838BDA9
:105FB000F0B58DB0161C0BAB002201900C1C1A70B2
:105FC000012E00D80A266D462B35201C311C01F00D
:105FD000F7FD201CCFB2311C01F0AEFD291C041CC2
:105FE000092F01D8303700E03737FFB22F70013D5D
:105FF000002CEAD10198FFF7B1FF0DB0F0BDF8B564
:10600000041C0D1C161E04D10368C9B21B689847F6
:1060100012E00A2A0DD100290ADA2D21FFF7B0FF7C
:106020006942071C321C201CFFF7C2FFC01903E0A5
:1060300000E0D2B2FFF7BCFFF8BD08B5FFF7DFFF05
:1060400008BD38B5041CFFF7DAFF051C201CFFF75C
:106050009DFF281838BD38B5041CFFF7D0FF051C7C
:10606000201CFFF793FF401938BD08B5002A02D164
:10607000FFF76EFF02E0D2B2FFF79AFF08BD38B516
:10608000041CFFF7F2FF051C201CFFF77FFF2818F8
:1060900038BD0000014B18607047C046000000206A
:1060A000024B012252421A607047C0460000002095
:1060B000154A1368581C25D0013B1360002B21D1D1
:1060C00072B6124A124B04329A4207D8BFF34F8F6E
:1060D000104A114BDA60BFF34F8F11E00F4B197D5F
:1060E000C807FBD5188B2021FF31920852000143CD
:1060F0001983DA610A4A1A801A7DD107FCD5E5E7CF
:10610000C046FDE77047C0460000002000200000A8
:10611000030200000400FA0500ED00E00040004129
:1061200002A5FFFF0160704770B5036801268D0767
:10613000ED0F31401C686D070907294321431960A1
:1061400004685100034801F0F7FC0138C0B2207325
:1061500070BDC046006CDC02036801211A680A4366
:106160001A600268116801231942FBD1D1691942F2
:10617000F8D17047036802211A680A431A6002685E
:10618000D3699907FCD470470368DA699107FCD496
:106190001A6802218A431A60704703689A6A520A91
:1061A00052021143996203681A7E5107FCD5986A1E
:1061B000C0B27047036801211A680A431A60026876
:1061C000116801231942FBD1D1691942F8D17047F6
:1061D000036802211A680A431A600368DA699107A2
:1061E000FCD45A8B30218A4310210A435A83026817
:1061F000D3695907FCD4704703688022196859682D
:10620000D2020A435A6070470368034A1968596802
:106210000A405A607047C046FFFFFBFF30B5036875
:1062200003241D680C40074A596824040A40ED06FF
:1062300022436D0F5A60052D03D10268D3695907B7
:10624000FCD430BDFFFFFCFF49001143036830B5AB
:10625000CDB2598B032409092140012904D0598B5F
:1062600009090C40022CF4D1596AC90AC902294310
:1062700059620368002A03D11A7ED107FCD50DE0CC
:10628000187E01224008104008D1197E1142F7D033
:106290005968C02292020A435A6003E05B8B0120D6
:1062A0009B08984330BD0368283319700268107E3C
:1062B0000123184003D1518B1942F8D003E0528BCF
:1062C000181C9208904370470368283319700368BC
:1062D00000201A7E510703D55B8B01209B08984351
:1062E000704703681868C006400F0438434258419D
:1062F000C0B270470368187E4007C00F704703683C
:10630000187E0123184070470368588BC006C00FE1
:1063100070470368187E8007C00F70470368588B6A
:106320000007C00F704703681A68D206520F052A8B
:1063300002D11A7E9107FCD528331878C0B2704775
:106340000368224A30B5934211D0214A934211D0BA
:10635000204A934211D0204A934211D01F4A9342BF
:1063600011D01F4A934230D10E2319220DE0092388
:1063700014220AE00A23152207E00B23162204E068
:106380000C23172201E00D231822DCB2154901204D
:106390009B08A0409B0008605B180320C021890077
:1063A00004405D58E000FF248440A5432C1CC02518
:1063B0008540281C204358508023DB011A430A4B98
:1063C0005A805A7852B2002AFBDB30BD00080042E6
:1063D000000C00420010004200140042001800426D
:1063E000001C004200E100E0000C0040F7B5019302
:1063F00008AB041C1F780D1C161CFFF7ADFE201CFB
:10640000FFF79EFFBF070C221743C02292033605F9
:106410001640C02292022D0423683E430199154084
:10642000354307221D600A408021236889020A4300
:106430005A60F7BD70B5041C0E1CFFF781FF201CCD
:10644000FFF7B8FE236814221A600D4B71001D6817
:106450002468281C01F070FB0A49061C281C01F066
:106460006BFB7D23FA215843C90001F065FB301A0C
:10647000E668FF23053818409E430643E66070BD7A
:106480008000002040420F0070B5494A1E21536829
:1064900002208B430343474953608B6908242343FD
:1064A0008B61454C454B9C829C8A20439882101CF2
:1064B000DA689407FCD5424A012414701478E50781
:1064C00004D53F4C647864B2002CF7DB012494605F
:1064D000547864B2002CFBDB3A4D394C656054783B
:1064E00064B2002CFBDB8225354CED0165805478CD
:1064F00064B2002CFBDB02249C84DC68E606FCD53D
:10650000314D2E4CE562DD682C4CEE06FBD5A58C9A
:106510002E4E3543A584DD68284CEE06FBD5A58CB0
:1065200002263543A584DC682506FCD5234CE468A7
:106530006606F8D5DC68E506FCD50024946054783E
:1065400064B2002CFBDB224D1D4C656055781C4C61
:106550006DB2002DFADB1E6A1E4D35401D621D6AAC
:106560008026B5431D620323A3601B4B63605378F1
:106570005BB2002BFBDB00230B72184A4B728B7251
:10658000CB72174BFF211A60164B174A1B68126813
:106590005C01D20E214011439A06520F12020B1CCD
:1065A0001343124A1385436880221343436070BD2E
:1065B00000400041000400400C06000000080040BC
:1065C000000C004001050100B905FF7D040A000030
:1065D00000070300FFFCFFFF03060100006CDC0264
:1065E0008000002024608000206080000040004285
:1065F00010B5041CFFF764FCE0602368201C5B6995
:106600009847002808DAFFF75BFCE368C01AA36824
:106610009842F2D30120404210BDF7B50026009009
:106620000191151CB3420FD0D718141C661BBC4235
:106630000AD00098FFF7DCFF002805DB019B984299
:1066400002D020700134F1E7301CFEBD3F207047BE
:1066500013B502686B46D97107335468191C0122BF
:10666000A04716BD08B50069022100F029FC08BD4D
:1066700008B50069032100F039FC08BD38B50D1CD0
:10668000041C131C006903212A1C00F01FFD0028B4
:1066900001D10123636038BD10B5054C23685A1C35
:1066A00004D103685B6998472060031C181C10BD67
:1066B00054000020074A08B51368591C04D0012172
:1066C00049421160181C03E00069022100F0F0FC4F
:1066D00008BDC0465400002008B5037803490233C2
:1066E00003704222024800F09BFD08BD100000200C
:1066F000430B002010B50178031C42780020A1292B
:1067000008D1212A2FD118481849072200F088FD06
:10671000012028E0212926D1202A05D1134907226A
:10672000114800F029FC04E0222A10D19A780F4B7E
:10673000DA710E4B96221968D200914210D1DC79A1
:1067400001231C400CD1FA20FFF7A4FC0AE0232A05
:1067500009D1DA789B7812021A43054B1A6002E0DD
:10676000FFF79EFC002010BD430B0020040000201A
:106770000C00002070470000064BFA218900996048
:10678000054900220831196004495A6019611A76D6
:106790007047C0467C06002028A80000430B00205C
:1067A00010B507230F220240141C00093034092AB7
:1067B00000DD0734CC54013BF4D210BD70B5822902
:1067C0001ED1C2B22A495301CB189D69294C8001C0
:1067D0002C40C025AD052C439C61274C0832201865
:1067E00058610B68520199180C798020404220436F
:1067F0000871D15C7020814330200143D15435E0D1
:10680000002933D1C2B21A495301CB189E68194DE1
:10681000C0242E40A40526439E60184E80010968BE
:106820003018083258605201505C0726B0430126E8
:10683000304350549E6935402C439C610E4C5C6142
:10684000505C7024A0431024204350549C680C4892
:106850008A1820408024640320439860986840216F
:10686000800B8003986053790B43537170BDC04611
:10687000480B0020FFFFFF8FA407002064090020C1
:10688000FF3F00F038B5041C08CC01211A78051C24
:106890000A431A708022201C0021520003F0A2FC3F
:1068A0002B689A78D107FCD45C6238BD134BF0B5E5
:1068B0001B6899035A029B01C90ED20E5B0F1F2958
:1068C00000D105211F2A00D11D22072B00D103234F
:1068D00004688E01278D0A491F25394031432185DF
:1068E00001682A400C8DAC4322430A8502681903D3
:1068F000108D044B03400B431385F0BD24608000D2
:106900003FF8FFFFFF8FFFFFEFF3108303600123CA
:10691000436072B670470368002B02D162B6BFF3C2
:106920006F8F704737B50569041C6846002D12D17A
:10693000FFF7EAFF019B013B03D3621DD57FEDB258
:10694000F9E768460193FFF7E6FF0020854217D07C
:10695000206AE36913E0FFF7D7FF019B0025013BA5
:1069600004D3221C34321578EDB2F8E7684601935F
:10697000FFF7D1FF0020854202D0206BE36AC01AE6
:106980003EBD0000436810B51A68037A01215B011F
:10699000D318FF339A7A0A439A72037A42685B01EA
:1069A000D318C2689C6891040B4A090922400A4323
:1069B0009A60037A42685B01D3189A684021920B6F
:1069C00092039A6043681A68037A08335B01D3180C
:1069D0001A790A431A7110BDFF3F00F0F7B5056937
:1069E000041C0E1C171C6846002D1FD1FFF78CFFDE
:1069F000019B013B5A1C06D0621DD17F5A1E002903
:106A00003AD0131CF6E768460193FFF784FF002590
:106A1000E369BD4235D0226A934232D25A1CE26108
:106A2000A269D3181B7873550135F1E7FFF76CFFA6
:106A3000019B013B5A1C08D0221C343215785A1E87
:106A4000EDB2002D18D0131CF4E768460193FFF750
:106A500062FF0025E36ABD4226D0226B934241D3F8
:106A600022E0621D0021D17730321678581E8E4206
:106A700014D1031C5A1CF4D168460193FFF74BFF55
:106A800038E0226A934235D10023E3610123236178
:106A90006846FFF739FF019B013BEBE71170201CB3
:106AA0000193FFF76FFFF6E7226B934222D1002399
:106AB000E36223616846FFF727FF019B013B5A1CF5
:106AC000DAD0221C34320021117001321678581E9F
:106AD0008E4201D1031CF2E71170201C0193FFF7D5
:106AE00051FFEAE75A1CE262A26AD3181B78735579
:106AF0000135AFE7281CFEBD37B54368027A1B6835
:106B0000083252019A18041CD0790123FF2118423F
:106B100055D0D371A068656962680140002D1FD10E
:106B20004901521891688904890C2162216A00295F
:106B300042D06361A36A68465360FFF7E5FE019B9C
:106B4000013B5D1C34D0621D0120D0772F321178BB
:106B50005D1EC9B21218002915D111702B1CF0E767
:106B60004B01D3189A689204920C2263226B002A7C
:106B700022D000226261A26968465A60FFF7C4FE13
:106B8000019B013B12E0019310706846FFF7C3FEC2
:106B900015E0221C343201201070621DD17F5D1E71
:106BA000C9B230320029EED111702B1C5D1CF0D11E
:106BB00068460193FFF7AFFE201CFFF7E3FE37BDE9
:106BC00037B500236C46E3710734201C0D1CFFF71A
:106BD00083FD2B681818286000F092FF211C00F03C
:106BE00049FF2B681818286020783EBD03290BD177
:106BF0000D4BB2221B685200985C80214942014330
:106C00009954022168220CE001290CD1064B9222F2
:106C10001B685200985C802149420143995402212B
:106C20002822FF3299547047480B002038B5264B74
:106C30002021DA69051C0A43DA61244B01201A7805
:106C4000062402431A70224B0F22197891431970BF
:106C50001978214319701F490C782043087019785E
:106C60000A401A701A7860210A431A701A4B1B4A9C
:106C70005A805A78D209FCD11948FFF71BF9194CF0
:106C8000201CFFF7FFFD201CFFF710FE23687F226A
:106C900019780A401A701A7804210A431A701A895E
:106CA0000C218A431A81C1210F4A890050580002E1
:106CB000000A5050802111601A7802210A431A708C
:106CC00001232B7038BDC0460004004058440041E9
:106CD0003C44004159440041000C00400640000083
:106CE0009D760000480B002000E100E000780028BD
:106CF00010D0094B01211B681A898A431A811A8B0B
:106D000008210A431A831A8B04210A431A83034B6E
:106D100000221A607047C046480B00204C0C00202F
:106D20000F4B9A69920B92039A611B680222FF3300
:106D30001A7298798022524202439A711A7A900705
:106D4000FCD5084B081C997A7F22104091430143DF
:106D50009972997A802252420A439A727047C046C9
:106D6000480B00200050004110B50B790C1C002B83
:106D70000BD1081CFFF7BEFC002804D1094B9A690F
:106D8000920B92039A6101200BE000F0B9FE211CE6
:106D900000F0A4FE0028F6D1024B9A69920B9203F0
:106DA0009A6110BD480B0020F7B50E1C832A18D13C
:106DB000CAB235495301CB189C693448B60120400A
:106DC000C024A405204398613148083286195E61C9
:106DD0000B685201D15C7020814340200143D154A3
:106DE00050E0022A4AD12B4A89008D580191002D8A
:106DF00048D13820FFF7A8F8274B80270360224BA3
:106E00007F004360431D0562866005614561C56181
:106E1000C760DD772F33041CC56205631D70381C05
:106E20005D7003F0B3F9A061381C03F0AFF9FF23E4
:106E300015491E407601A0628E19B168134A0725D4
:106E40000A40C02189050A43B260A16862681940FE
:106E5000126808314901885CA843032528438854F7
:106E6000A268616813405B01A269CB185A60201CBC
:106E7000FFF788FD019B07495C5003E0081C111CCB
:106E8000FFF79CFCF7BDC046480B0020FFFFFF8FBB
:106E9000A4070020240B002058A8000038B5051CCA
:106EA0000124064BA200D258002A06D0211C281C1F
:106EB0000134FFF779FFE4B2F3E738BD5800002052
:106EC00008B5084B8A00D058002803D003689B6897
:106ED000984706E0C9B2044B4901591888688004F4
:106EE000800C08BD240B0020480B002010B50C1CA2
:106EF000FFF7E6FF00280CD0064BE1B21B68083113
:106F0000490159184A7980235B4213434B7102238C
:106F1000CB7110BD480B002070B5CAB2134B14489A
:106F2000540189015918031959609D6811490832A3
:106F300029408025AD022943996099684026890B34
:106F4000890399600368510159180D7935430D7112
:106F50005101591889794D06FAD551015918C97945
:106F6000CD07FAD50419A068C0B270BD640900202D
:106F7000480B0020FF3F00F038B50C4B141C1B6879
:106F80000D1CFF335A7940210A435A710021FFF743
:106F9000C3FFA04200D9201C0023A34204D0044A0E
:106FA0009A5CEA540133F8E738BDC046480B00202C
:106FB0006409002010B5C9B20C48490143189A6809
:106FC0009204920C3F2A08D9141C9A68403CA404ED
:106FD000920BA40C9203224302E09A68920B920354
:106FE0009A6041188868C0B210BDC046480B0020A6
:106FF000F0B51C1C2A4B85B01B68061C0D1C0292A8
:10700000002B46D0274B8A00D058002805D00368B3
:1070100002995B68221C98473FE0301CFFF750FF45
:10702000A04204D2301C291CFFF74AFF041C291C73
:10703000301CFFF7BFFF1C4FE9B24A0101913968CC
:1070400003928B18FF335A7A01210A4317495A7267
:10705000AB01C9180298221C03F0BBF8002C1BD00E
:10706000301C291CFFF72CFF002815D1019B3A6822
:1070700008335B01D31819794020014319710121AC
:10708000D97103995318FF339A7A01210A439A72EE
:1070900002E00120404200E0201C05B0F0BDC046E7
:1070A0004C0C0020240B0020480B00206409002019
:1070B00013B56C460734221C0123FFF799FF012802
:1070C00001D1207801E00120404216BDF0B51C1C22
:1070D0003A4B85B01B680E1C0292002B60D08023B7
:1070E000DB019C425CD800220092002C56D0344D2B
:1070F000F7B22B6801933B1C0833019A5B01D3184C
:107100009B79DB091AD02F4B2F49186800F014FD2A
:107110002E4B1721584300F00FFD3B1C0833019AFA
:107120005B01D318DB799A0708D4294B9A5D002AB2
:1071300038D1421E002835D0101CEEE7244B002227
:107140009A55251E3F2D00D93F25224AB301D31859
:10715000181C02992A1C039303F03BF8184A7B0180
:10716000D318039AA9045A619A69890C920B920365
:107170000A439A613B1C019A08335B01D31802222F
:10718000DA715979802252420A435A71009B029A5D
:107190005B1952190093641B0292A6E700980BE05A
:1071A000012008E001229A557B01ED18AB69101C03
:1071B0009B0B9B03AB61404205B0F0BD4C0C002023
:1071C000480B00208000002040420F007011010099
:1071D0009C070020A407002070B50E4D1C1C8B01DD
:1071E000ED18281C0E1C111C221C02F0F2FFF6B236
:1071F0000949760189194D618A69084B201C1340A1
:107200008B618B69A2049B0B920C9B0313438B61D4
:1072100070BDC046A4070020480B0020FF3F00F0CF
:10722000F7B5114B01901B780F1C141C002B19D1C2
:107230000E4B1E78002E01D1151C08E00C4D0D4898
:107240002E888019361902F0C4FF2E800AE0002D26
:1072500008D0BA192B1C01980021FFF7BDFF361882
:107260002D1AF4E7201CFEBD420B0020400B00202D
:107270009A07002099060020F8B50E1C00AF151ED5
:10728000012D28D9D31DDB08DB006A46D21A9546AA
:10729000081C03F05DF801306C46400003232070A9
:1072A00063700222AA420ED23378002B0BD0511CFD
:1072B000C9B20136A354A94204D000230232635458
:1072C000D2B2EFE72A1C0548211CFFF7A9FF431E95
:1072D0009841C0B200E00020BD46F8BD430B00203D
:1072E00008B5044B00221A70034B04491A88FFF7B3
:1072F00097FF08BD400B00209A0700209906002048
:10730000F0B5204A87B001230026009102A913702E
:10731000051C0296FFF754FC03AC092701903A1CA8
:10732000201C311C02F05EFF02236370A023E37176
:10733000FA232372029B0122DB196380019B627195
:107340002371104A009B27701670BB4205D1281C80
:10735000211C1A1CFFF764FF11E00B4B01221A706D
:107360000A4B211C3A1C281C1E800296FFF758FF6E
:10737000281C02A9FFF724FC281CFFF7B1FF0120FD
:1073800007B0F0BD420B0020400B00209A07002000
:1073900070B5CE7892B0051C0C1C022E08D1C9889D
:1073A0002D48FFF7ADFF031C581E8341D8B251E0B2
:1073B00000F0A6FB211C00F072FB002803D0C317CD
:1073C0001B1AD80F46E0012E04D1E2882349112A66
:1073D0003BD837E0032E3DD1A278002A05D12049C1
:1073E000E2880B7893422DD82FE0022A03D1A279AC
:1073F000281C1C4904E0012A05D1A2791A49281C3D
:10740000FFF73AFF26E0032A24D1184B01A9186898
:10741000FFF7C6F9164B03A91868FFF7C1F9154B1A
:1074200005A91868FFF7BCF9134B07A91868FFF7FF
:10743000B7F900F065FB09A900F041FBA279281C0F
:1074400001A9DDE7D2B2002A00D10A78281CFFF793
:10745000E7FE012012B070BD430B002078A80000A9
:1074600074A800008AA8000068A800000CA0800092
:1074700040A0800044A0800048A0800073B5051C97
:1074800048780C1C0B2878D800F04CFB081C772897
:10749000773E4306474B686F00206FE0097801AAEA
:1074A000002903D111705170281C09E000231370CA
:1074B0005370334B1B78012B00D11370281C002113
:1074C00002234FE08A780023012A04D101AA137015
:1074D00053702C4BEEE72A4A137049E08E78012E48
:1074E00007D1284B01AA00211E701170281C331CE3
:1074F00038E0002E08D1224A01231370224A9169F4
:10750000890B8903916138E0A178281CFFF708FCFA
:1075100033E0281CFFF73CFF30E0281C00211B4A09
:107520001FE00A780020D30628D1281CFFF7B6FCFC
:10753000A2781549154B02241A600A682A23FF33E2
:10754000D05C2043D0544A20FF30145C01231C43FC
:1075500014548A69920B92038A610EE00C4A281C2B
:1075600000210123FFF738FE07E08A78084B1A60F4
:10757000054B9A69920B92039A61012076BDC04631
:1075800098060020410B0020480B00204C0C0020E6
:10759000440B0020F8B53B4B071C1C78002C70D125
:1075A000394D2868838B19070ED5201C211CFFF745
:1075B00005F92B6810201A1CFF32917A0143917251
:1075C000324A146008229A832B689A8B500701D59F
:1075D00004229A83FF331A7AD10626D510221A7212
:1075E0005A7940210A432A495A710A786023381C83
:1075F0001A4202D1FFF742FF01E0FFF7B5FB002876
:1076000006D02B688022FF33997952420A4301E069
:10761000204B20229A712B68FF331A7A500604D52A
:1076200040221A72597A0A435A722968FE230E8C34
:1076300000241E40E1B2002E23D0321C012322413F
:107640001A4216D0221C2868083252018218D079BA
:10765000184203D1D279DA401A4207D00E4BA20069
:10766000D058002809D003681B6898470123A3401D
:107670009E430134092CDDD103E0381CFFF7B6FA34
:10768000F4E7F8BD400B0020480B00204C0C002014
:1076900064090020FF500041240B002008B5024877
:1076A000FFF778FF08BDC046430B0020014A024B9C
:1076B0001A60704700500041480B0020314BFA21FE
:1076C000186810B5890000F037FA2F4B013898423E
:1076D00024D82E4A2E4B5060186AC0210002000A9E
:1076E0000906014319620024072194601160196A98
:1076F00080220902090A12060A431A62254BFC215C
:107700001A6A0A431A62196AFC2292010A431A622F
:10771000196AA022D2020A431A6200E0FEE7201C86
:107720000021013400F070F8142CF8D11A4C637861
:107730005BB2002BFADB194B6380194B5A7ED209DE
:10774000012AFAD0E422D2009A803F22DA70597ED0
:10775000134AC9090129FAD0C0235B010020136133
:10776000907000F023F863785BB2002BFBDB0D4ACE
:10777000094B5A800C4BDA79D209012AFAD04122FE
:107780005A7010BD80000020FFFFFF0010E000E0F5
:1077900000ED00E000040040000C00401E4000002E
:1077A00000400042214000000048004200B5144A59
:1077B000517E131CC9090129F9D00138042813D8B6
:1077C0001969104A0A401A615A780F218A4300F059
:1077D000A9F9030509070300012102E0032100E0E4
:1077E00002210A435A700AE01169F0231B050B437A
:1077F000136153780F218B4302210B43537000BD5B
:1078000000400042FFFFFFF010B51824021C201CAE
:107810005043274B1818007A40B2013046D0032954
:1078200044D8081C211C00F07DF902331121624369
:1078300098569A18C3011F4852681B18991840316E
:10784000022008700121914059602FE06243985650
:1078500018499A185268C3015B18991840310620DC
:10786000087001219140596099611FE051435A56B7
:10787000104859184B68D2011118C8184030062416
:1078800004700120984048600B49521850600DE088
:10789000624398569A18C301064852681B189918F3
:1078A00040310220087001219140996010BDC0460E
:1078B00098A8000000440041104400411823584398
:1078C000134AF0B5131808241C5701341FD08256F0
:1078D000104ED2015D6801249019231C8668AB40CC
:1078E0001E420BD10E1C771EBE4140193440403061
:1078F000A50004780426B4432C430470002903D166
:1079000005495218536002E0024E92199361F0BD8E
:1079100098A8000000440041104400411823584337
:10792000084A082113185956013109D082560649D0
:10793000D20152185B68106AD8400123184000E059
:107940000020704798A800000044004118224243DC
:10795000F8B52D4D0824AA181457031C621C50D0EA
:10796000481C00240C284CD800F0DCF8071E1E1E12
:107970001E1E1E1E1E0A0A0A0A000124644240E05E
:10798000092902D1181C002103E00A2904D1181C7E
:107990000221FFF739FF23E000240B2931D1181C05
:1079A0000121FFF731FF2CE018225343EA185268F7
:1079B000EB560120141C04405508DB01002C11D0AB
:1079C000124C1B195D1930352E780C010F213140F6
:1079D00021439A18C9B229704032137818431070A5
:1079E00000240EE0094E0F279B195D1930352E78C3
:1079F0009A18BE433143C9B22970403213781843F4
:107A00001070201CF8BDC04698A80000004400413A
:107A100008B50C490C48FEF785FB0C490C48FEF7ED
:107A200081FB0C490C48FEF77DFB0C490C48FEF726
:107A300079FB0C490C48FEF775FB0C480C49FEF726
:107A400071FB08BD00080042540C0020000C0042ED
:107A5000580C0020001000425C0C00200014004272
:107A6000500C002000180042600C0020640C002024
:107A7000001C004270B544680E1C0025002C09D083
:107A80002368201C5B68311C9847002804DB2D18F4
:107A9000E468F3E7281C01E00120404270BD38B5DE
:107AA00044680D1C002C08D02368201C9B68291CEE
:107AB0009847002802D1E468F4E7201C38BD38B5A7
:107AC00044680D1C002C07D02368201C291CDB688F
:107AD0009847E4682D18F5E72C7038BD38B5446830
