:1020000000800020315900001959000019590000C2
:1020100000000000000000000000000000000000C0
:10202000000000000000000000000000195900003E
:102030000000000000000000195900008559000050
:1020400019590000195900001959000019590000C8
:102050001959000019590000195900001D590000B4
:10206000195900002577000019590000195900007E
:10207000F158000019590000357700001959000087
:102080001959000019590000195900001959000088
:1020900000000000195900001959000019590000EA
:1020A0001959000019590000195900001959000068
:1020B0000000000010B5064C2378002B07D1054B1B
:1020C000002B02D0044800E000BF0123237010BDA4
:1020D00020010020000000008CB0000008B5084B73
:1020E000002B03D00748084900E000BF07480368F9
:1020F000002B03D0064B002B00D0984708BDC046EC
:10210000000000008CB00000240100201401002019
:102110000000000008B50368C9B21B68984708BDF5
:1021200008B5021C0821024803F0E6FA08BDC046C3
:10213000300400207FB5C368D9684A6889689378FD
:10214000303B042904D10A214B43D278303A9B1802
:10215000D8B2102B08D9059B044800936521044A86
:102160001D2302F0BBFFFF2007B000BDEC030020E1
:1021700048A5000070470000F7B50E1C0021041CA4
:1021800005F048FE2E4D002809D0201C2D4905F0F1
:1021900055FE002803D0281C2B4903F071FC201C9D
:1021A00006F05AFC01900199281C0A2203F0C9FC90
:1021B000002E43D0281C254903F062FC731EDBB2BD
:1021C00000930127013EF6B2FF2E02D00A235F439F
:1021D000F8E7201C002105F03BFE002805D00198FF
:1021E00006F05AFC011C201C03E0019806F054FC88
:1021F000211C06F0C1FA041C381C06F0A9FC011CC5
:10220000201C06F08FF905F02DFE041C0A2105F0B4
:1022100061FD002804D0009B013BDBB20093F5E791
:10222000009E281C002E05D00949013E03F028FC21
:10223000F6B2F6E7211C0A2203F09BFCF7BDC0466C
:102240006C060020000080BF66A5000068A50000A5
:102250006AA5000008B5084A084900231362136301
:102260005163074A07481362136351630D230649FC
:102270000B2203F09FF908BD7C03002088130000A7
:10228000B403002040010020C80D002010B5C0B0EC
:102290000C4C201C04F01CF80028F9D080236A465E
:1022A000201C0A215B0003F0EEFF021EF0DD6946F0
:1022B000054802F06FFD054B201C19780A2203F037
:1022C00062FCE5E76C060020EC0300203C010020E6
:1022D00038B5074C051C0821201C03F0B9F9291C4E
:1022E000201C03F00EFA201C03F069FA38BDC0462A
:1022F0003004002008B5814803F08AF9804803F0D3
:1023000087F902210B2005F0ABF902210D2005F021
:10231000A7F90420012105F001F90820012105F0A9
:10232000FDF80920012105F0F9F81320002105F03E
:10233000F5F81920012105F0F1F80620012105F03A
:10234000EDF81E20012105F0E9F82820012105F013
:10235000E5F81020002105F0E1F80F20002105F03C
:10236000DDF82620012105F0D9F80220011C05F036
:10237000D5F80520022105F0D1F80320012105F050
:10238000CDF80A20012105F0C9F81220012105F03D
:10239000C5F80320002105F01BF90A20002105F0F3
:1023A00017F91E20012105F013F90420002105F082
:1023B0000FF90820002105F00BF90920002105F094
:1023C00007F91920002105F003F90620002105F086
:1023D000FFF82620012105F0FBF81220012105F06D
:1023E000F7F80A20012105F099F80A20012105F0EB
:1023F000EFF8E1214902434803F0F2FF01F026FA29
:1024000002F0ACFB404803F0D1FA0121042005F0B2
:10241000DFF81420FFF75CFF3C4B012219781143D1
:1024200019703B4B402119703A4B187810431870C3
:10243000394B19703949087802430A701A78042117
:102440000A431A708222364B52001A60354B5A7872
:10245000D209FBD13449354A11605A78D209FCD1EE
:102460003349344A11805A78D209FCD1324A334B6D
:102470001168181C19431160314A93685906FBD43E
:10248000304B1968014319602F4B99684806FBD4FB
:102490002E482F49086091680806FCD42D482E4923
:1024A000086099680806FCD410688121490001433E
:1024B000116091688807FCD41968284801431960A5
:1024C00099688907C90FFBD1254801609168880583
:1024D000FCD4FA21234A490011609A689105FCD482
:1024E000AF21214A890011609A68D005FCD41F4BA6
:1024F0001F4A13611F4A136108BDC0463004002003
:10250000400100206C060020DC0500004944004129
:1025100034440041474400413344004146440041B3
:10252000080C0040000C004004070300040C0040AD
:102530001A440000020C00403C20004206000F003C
:10254000002000423C24004200240042FFFFFF0024
:1025500040200042FF03000040240042020400002B
:102560004820004248240042442400420000F04138
:102570007C030020B403002070B5094C061C0D1C20
:10258000201C082103F064F8311C201C03F0B9F86A
:10259000291C201C03F0B5F8201C03F010F970BDB5
:1025A00030040020F8B50E4D0E4E0C1C071C0821FF
:1025B000281C326003F04CF8391C281C03F0A1F8E9
:1025C000211C281C03F09DF80324315D281C03F016
:1025D00098F8013CF9D2281C03F0F1F8F8BDC04688
:1025E0003004002074030020F8B5124C071C0E1CA8
:1025F000201C0821151C03F02BF8391C201C03F0AB
:1026000080F8311C201C03F07CF82916201CFFF7F1
:1026100081FD2914201CFFF77DFD2912201CFFF7E6
:1026200079FD291C201CFFF775FD201C03F0C7F85D
:10263000F8BDC04630040020F8B50C4C071C0E1C39
:10264000201C0821151C03F003F8391C201C03F082
:1026500058F8311C201C03F054F8291C201C03F0EE
:1026600050F8201C03F0ABF8F8BDC0463004002041
:1026700010B5054C08210122201C03F03DF8201C58
:1026800003F0A2F8C0B210BD3004002008B50E203F
:10269000FF210122FFF7D0FF0A2003F087F9322043
:1026A000FFF716FEFFF7E4FF0028F5D008BD000095
:1026B000F8B50D4C201C03F087F8071C201C03F014
:1026C00083F8051C201C03F07FF8061C201C03F077
:1026D0007BF8FF231E4036023F06374318401D405B
:1026E00038432D042843F8BD3004002038B5064C8B
:1026F000201C03F069F8051C201C03F065F8EDB2FE
:102700002D02C0B2284338BD30040020F8B50B4F6D
:10271000381C03F059F8061C381C03F055F8051C4A
:10272000381C03F051F8041C381C03F04DF8044B1E
:102730001E705D709C70D8701868F8BD3004002061
:102740007403002038B50A4C051CC1B2201C03F0EC
:10275000B5FD2904090E201C03F0B0FD2902090E65
:10276000201C03F0ABFD290E201C03F0A7FD38BD93
:102770006C060020F0B5011C89B02020FFF7FCFE9C
:102780002C20FFF7CDFCFFF7C1FF071CFFF7BEFFB2
:10279000061CFFF7BBFF051CFFF7B8FF0190FFF712
:1027A000B5FF0290FFF7B2FF0390FFF7AFFF049071
:1027B000FFF7ACFF0590FFF7A9FF0690FFF778FF42
:1027C0000790FFF775FF041C381CFFF7BBFF301C98
:1027D000FFF7B8FF281CFFF7B5FF0198FFF7B2FF1E
:1027E0000298FFF7AFFF0398FFF7ACFF0498FFF7DD
:1027F000A9FF0598FFF7A6FF0698FFF7A3FF084D6E
:10280000079B281CD9B203F059FDE1B2281C03F044
:1028100055FD281C034903F045F909B0F0BDC04639
:102820006C06002092A9000008B5081C02F0D7FA37
:10283000024B012200201A7008BDC0467803002018
:1028400008B5081C02F0CBFA014B0020187008BD37
:102850007803002008B5081C02F0C1FA034B0121DF
:102860001A7800200A431A7008BDC0463C010020B7
:1028700008B5081C02F0B3FA0248034903F012F944
:10288000002008BD6C06002092A9000008B5452074
:10289000FFF71EFDBFF34F8F034A044BDA60BFF30F
:1028A0004F8FC046FDE7C0460400FA0500ED00E08A
:1028B00008B5081C02F093FA1220FFF709FD00206A
:1028C00008BD08B5081C02F08AFA1320FFF700FDC6
:1028D000002008BD08B5081C02F081FA1420FFF79B
:1028E000F7FC002008BD000008B5081CFFF722FC1B
:1028F000012802D1044B187304E0022802D1034BD3
:1029000001221A73002008BD7C030020B4030020BC
:1029100008B5081CFFF70EFC012802D10022044B69
:1029200003E0022802D1034B00221A73002008BDE5
:102930007C030020B403002038B5081C0C1CFFF7F2
:10294000F9FB051C201C02F04AFA291C0F20FFF796
:1029500013FE002038BD38B5081C0C1CFFF7EAFB3D
:10296000051C201C02F03BFA291C1020FFF704FE76
:10297000002038BD38B5081C0C1CFFF7DBFB051C1C
:10298000201C02F02CFA291C0B20FFF7F5FD00207B
:1029900038BD38B5081C0C1CFFF7CCFB051C201CEF
:1029A00002F01DFA291C1820FFF7E6FD002038BDB3
:1029B00038B5081C0C1CFFF7BDFB051C201C02F0E1
:1029C0000EFA291C2520FFF7D7FDFFF751FE0A223A
:1029D000011C024803F0D7F8002038BD6C06002027
:1029E00038B5081C0C1CFFF7A5FB051C201C02F0C9
:1029F000F6F9291C2620FFF7BFFDFFF739FE0A2252
:102A0000011C024803F0BFF8002038BD6C0600200E
:102A100038B5081C0C1CFFF78DFB051C201C02F0B0
:102A2000DEF9291C2320FFF7A7FDFFF721FE0A226C
:102A3000011C024803F0A7F8002038BD6C060020F6
:102A400038B5081C0C1CFFF775FB051C201C02F098
:102A5000C6F9291C2120FFF78FFD04220821074811
:102A600002F04AFEFFF752FE0721FFF785FB0449FB
:102A7000044803F017F8002038BDC0463004002099
:102A800092A900006C06002038B5081C0C1CFFF74A
:102A900051FB051C201C02F0A2F9291C2220FFF783
:102AA0006BFD04220821074802F026FEFFF72EFEE8
:102AB0000721FFF761FB0449044802F0F3FF0020FF
:102AC00038BDC0463004002092A900006C060020EA
:102AD00038B5081C0C1CFFF72DFB051C201C02F050
:102AE0007EF9291C2820FFF747FD0422082107480A
:102AF00002F002FEFFF70AFE0621FFF73DFB044944
:102B0000044802F0CFFF002038BDC046300400204A
:102B100092A900006C06002038B5081C0C1CFFF7B9
:102B200009FB051C201C02F05AF9291C2720FFF77D
:102B300023FD04220821074802F0DEFDFFF7E6FD31
:102B40000821FFF719FB0449044802F0ABFF0020FD
:102B500038BDC0463004002092A900006C06002059
:102B6000CB6830B5DB680D1CDB6887B059689A68A4
:102B70000B4B03A800930B4B0193002302F03EF98B
:102B8000281C039CFFF7D6FA012801D1064B02E06E
:102B9000022801D1054B5C61002007B030BDC04662
:102BA000000020C0000020407C030020B40300206F
:102BB000CB6830B5DB680D1CDB6887B059689A6854
:102BC0000B4B03A800930B4B0193002302F016F963
:102BD000281C039CFFF7AEFA012801D1064B02E046
:102BE000022801D1054B5C62002007B030BDC04611
:102BF000000020C0000020407C030020B40300201F
:102C0000CB6830B5DB680D1CDB6887B059689A6803
:102C10000B4B03A800930B4B0193002302F0EEF83B
:102C2000281C039CFFF786FA012801D1064B02E01D
:102C3000022801D1054BDC61002007B030BDC04641
:102C4000000020C0000020407C030020B4030020CE
:102C5000CB6830B5DB680D1CDB6887B059689A68B3
:102C60000B4B03A800930B4B0193002302F0C6F813
:102C7000281C039CFFF75EFA012801D1064B02E0F5
:102C8000022801D1054BDC62002007B030BDC046F0
:102C9000000020C0000020407C030020B40300207E
:102CA000CB6830B5DB680D1CDB6887B059689A6863
:102CB0000B4B03A800930B4B0193002302F09EF8EB
:102CC000281C039CFFF736FA012801D1064B02E0CD
:102CD000022801D1054B9C61002007B030BDC046E1
:102CE000000020C0000020407C030020B40300202E
:102CF000CB6830B5DB680D1CDB6887B059689A6813
:102D00000B4B03A800930B4B0193002302F076F8C2
:102D1000281C039CFFF70EFA012801D1064B02E0A4
:102D2000022801D1054B9C62002007B030BDC0468F
:102D3000000020C0000020407C030020B4030020DD
:102D4000CB6830B5DB680D1CDB6887B059689A68C2
:102D50000B4B03A800930B4B0193002302F04EF89A
:102D6000281C039CFFF7E6F9012801D1064B02E07D
:102D7000022801D1054B1C62002007B030BDC046BF
:102D8000000020C0000020407C030020B40300208D
:102D9000CB6830B5DB680D1CDB6887B059689A6872
:102DA0000B4B03A800930B4B0193002302F026F872
:102DB000281C039CFFF7BEF9012801D1064B02E055
:102DC000022801D1054B1C63002007B030BDC0466E
:102DD000000020C0000020407C030020B40300203D
:102DE000CB6830B5DB680D48DB6887B09A680D1C8E
:102DF000596800230190009303A801F0FFFF281CED
:102E0000039CFFF797F9012801D1054B02E0022846
:102E100001D1044B1C61002007B030BD0000AA4264
:102E20007C030020B403002030B5081C87B00C1CC4
:102E3000FFF780F9E368051CDB6803A8DB685968C5
:102E40009A68002300930A4B0193FE239B0501F02F
:102E5000D5FF201C01F0C3FF039805F0FDFD291CE0
:102E6000021C0120FFF7C0FB002007B030BDC046A8
:102E70000000204130B5081C87B00C1CFFF75AF940
:102E8000E368051CDB680C48DB6859689A68002316
:102E90000093019003A801F0B1FF201C01F09FFFF7
:102EA000039805F0D9FD291C021C0520FFF79CFBA7
:102EB000002007B030BDC04600007A44CB6810B592
:102EC000DB680D48DB6886B09A680C1C59680023E3
:102ED0000093019003A801F091FF201C01F07FFFF7
:102EE000039805F0B9FDFF21021C1620FFF77CFBBB
:102EF000002006B010BDC04600007A44CB6830B553
:102F0000DB681048DB6887B09A680C1C596800239E
:102F10000093019003A801F071FF201CFFF70AF94C
:102F2000051C201C01F05BFF039805F095FD291C92
:102F3000021C1520FFF758FB142002F037FD00207B
:102F400007B030BD00F07F4508B54420FFF7C0F959
:102F5000642002F02BFD002008BD0000CB6830B5D6
:102F6000DB680C1CDB6887B059689A680C4B03A8B7
:102F700000930C4B0193002301F040FF201CFFF74E
:102F8000D9F8051C201C01F02AFF291C039A1120E6
:102F9000FFF708FB142002F009FD002007B030BD48
:102FA000000020C10000204130B5081C87B00C1C77
:102FB000FFF7C0F8E368051CDB6803A8DB68596805
:102FC0009A68094B0093094B0193FE239B0501F07E
:102FD00015FF201C01F003FF0620291C039AFFF7B0
:102FE000E1FA002007B030BD000020C10000204100
:102FF00030B5081C87B00C1CFFF79CF8E368051C73
:10300000DB6803A8DB6859689A68094B0093094B91
:103010000193002301F0F2FE201C01F0E0FE0720E6
:10302000291C039AFFF7BEFA002007B030BDC04646
:10303000000020C10000204130B5081C87B00C1CE6
:10304000FFF778F8E368051CDB6803A8DB685968BC
:103050009A6800230093FE239B050193064B01F021
:10306000CDFE201C01F0BBFE0820291C039AFFF7AF
:1030700099FA002007B030BD0AD7A33C30B5081C30
:1030800087B00C1CFFF756F8E368051CDB68FE20D0
:10309000DB68800559689A6800230093019003A8B3
:1030A00001F0ACFE201C01F09AFE0320291C039ABB
:1030B000FFF778FA002007B030BD30B5081C87B0A4
:1030C0000C1CFFF737F8E368051CDB68FE20DB68A3
:1030D000800559689A6800230093019003A801F0C5
:1030E0008DFE201C01F07BFE0420291C039AFFF7B3
:1030F00059FA002007B030BDCB6830B5DB680D1C35
:10310000DB6887B059689A68114B03A80093114B8C
:103110000193FE239B0501F071FE281CFFF70AF8BE
:10312000041C281C01F05BFE039805F095FC051CAF
:10313000211C0C2001226B1C05D00022FFF77CFA19
:10314000EAB20D20211CFFF777FA002007B030BD4E
:10315000000080BF00002041CB6830B5DB680C1C4C
:10316000DB6887B059689A680D4B03A800930D4B34
:103170000193FE239B0501F041FE201CFEF7DAFFC0
:10318000051C201C01F02BFE039804F06BFE291C8B
:10319000C2B21720FFF750FA002007B030BDC0467A
:1031A000000080BF0000204130B5081C87B00C1C17
:1031B000FEF7C0FFE368051CDB6803A8DB685968FD
:1031C0009A6800230093FE239B050193094B01F0AD
:1031D00015FE201C01F003FE039804F043FE291C99
:1031E000C2B24320FFF728FA322002F0DFFB0020B2
:1031F00007B030BD0AD7A33C30B5081C87B00C1C03
:10320000FEF798FFE368051CDB680C48DB6859682B
:103210009A6800230093019003A801F0EFFD201CA1
:1032200001F0DDFD039804F01DFE291CC2B202204E
:10323000FFF702FA002007B030BDC0460000204171
:1032400008B5081C01F0CBFD0E20FF210122FFF77D
:10325000F3F9002008BD08B5081C01F0C0FD0E20E0
:10326000FF210022FFF7E8F9002008BD08B5081C7F
:1032700001F0B5FDFEF77EFF002008BD38B5081C43
:103280000C1CFEF757FF051C201C01F0A8FD291C93
:103290002B20FFF771F908210422064802F02CFACE
:1032A000FFF706FA0A22011C034802F058FC00202E
:1032B00038BDC046300400206C06002038B5081C1C
:1032C0000C1CFEF737FF051C201C01F088FD291C93
:1032D0002A20FFF751F908210422064802F00CFACF
:1032E000FFF7E6F90A22011C034802F038FC00202F
:1032F00038BDC046300400206C06002038B5081CDC
:103300000C1CFEF717FF051C201C01F068FD291C92
:103310002920FFF731F908210422064802F0ECF9D0
:10332000FFF7C6F90A22011C034802F018FC00202E
:1033300038BDC046300400206C060020F7B5081CDC
:103340000C1CFEF7F7FE0190201C01F048FD0199CE
:103350003020FFF711F90220FEF7E2FEFFF7C6F971
:103360001B4D071C0A22391C281C02F0EAFB194CD1
:10337000281C211C02F084FBFFF788F9002631206D
:103380000199FFF7F9F814480821382202F0B4F93E
:103390000024BE4210D2FFF7B9F90621FEF7ECFE79
:1033A000281C0C4902F06CFBE30701D5731C9EB28C
:1033B00001340E2CEDD1E2E700220E20FF21FFF7B1
:1033C0003BF9281C054902F06DFB0020FEBDC046FC
:1033D0006C0600206CA500003004002092A90000BB
:1033E00070B5081C0C1CFEF7A5FEE368061CDB6824
:1033F000DB689968586801F0F7FC051C201C01F097
:10340000EEFC311C2A1C0A20FFF716F9002070BDC3
:1034100070B5081C0C1CFEF78DFEE368061CDB680B
:10342000DB689968586801F0DFFC051C201C01F07E
:10343000D6FC311C2A1C0920FFF7FEF8002070BDC5
:1034400070B5081C0D1CFEF775FEEB68041CDB68EC
:10345000DB685868996801F0C7FC061C281C01F05D
:10346000BEFC201C002E03D001F022FB412002E014
:1034700001F034FB4220211CFFF77EF8002070BDD4
:1034800070B5081C0C1CFEF755FEE368051CDB68D4
:10349000DB685868996801F0A7FC061C201C01F045
:1034A0009EFC281C002E02D001F02EFB01E001F052
:1034B0003FFB002070BD70B5081C0C1CFEF73AFEE7
:1034C000E368051CDB68DB685868996801F08CFCD0
:1034D000061C201C01F083FC281C002E02D001F0E9
:1034E00097FA01E001F0A8FA002070BD38B5081C79
:1034F0000C1CFEF71FFE051C201C01F070FC281C94
:10350000FFF738F9002038BD38B5081C0C1CFEF751
:1035100011FE051C201C01F062FC281C01F0A0FA21
:10352000002038BD38B5081C0C1CFEF703FE051C36
:10353000201C01F054FC281C01F0A6FA002038BD24
:10354000CB6810B5DB681048DB6886B09A680C1C45
:10355000596800230093019003A801F04FFC201C40
:1035600001F03DFCE368DB685B6858793038C0B235
:1035700001F00EFE039804F075FCC0B201F068FE85
:10358000002006B010BDC0460000FE4238B5081C41
:103590000C1CFEF7CFFD051C201C01F020FC281C94
:1035A00001F07AF80521FEF7E7FD0349034802F030
:1035B00079FA002038BDC04692A900006C060020B0
:1035C00038B5081C0C1CFEF7B5FD051C201C01F0CD
:1035D00006FC281C01F044F80521FEF7CDFD034947
:1035E000034802F05FFA002038BDC04692A90000EF
:1035F0006C06002038B5081C0C1CFEF79BFD051C52
:10360000201C01F0ECFB281C01F05AF80A22011CD6
:10361000024802F0A4FA002038BDC0466C06002023
:1036200008B5081CFEF786FD431EDBB2012B01D84E
:1036300001F0C4FE002008BD08B5081CFEF77AFDA5
:10364000431EDBB2012B01D801F0C6FE002008BDED
:10365000CB6810B5DB680C1CDB6886B059689A68CB
:103660000A4B03A800930A4B0193002301F0C6FB09
:10367000201CFEF75FFD431EDBB2012B02D803992D
:1036800001F07AFE002006B010BDC046000020C048
:1036900000002040CB6830B5DB681148DB6887B09C
:1036A0009A680C1C596800230093019003A801F04C
:1036B000A5FB201C039DFEF73DFD041E012C01D13E
:1036C000084802E0022807D10748291C01F0DEF86B
:1036D000011C201C01F050FE002007B030BDC04688
:1036E0000000AA427C030020B403002038B5081C67
:1036F0000C1CFEF71FFD051C201C01F070FB281C94
:1037000000F062FF0A22011C024802F01EFA0020AB
:1037100038BDC0466C06002038B5081C0C1CFEF7EE
:1037200009FD051C201C01F05AFB281C00F03CFF81
:103730000A22011C024802F008FA002038BDC046E7
:103740006C06002030B5081C87B00C1CFEF7F2FC9C
:10375000E368051CDB688020DB68C0059A6859684F
:1037600000230093019003A801F048FB201C01F006
:1037700036FB281C039900F037FF002007B030BD4E
:1037800030B5081C87B00C1CFEF7D4FCE368051CA0
:10379000DB680A48DB689A68596800230093019047
:1037A00003A801F02BFB201C01F019FB281C039936
:1037B00000F028FF002007B030BDC0460000C8421E
:1037C00038B5081C0C1CFEF7B5FC051C201C01F0CC
:1037D00006FB281C002100F08BFF002038BD38B507
:1037E000081C0C1CFEF7A6FC051C201C01F0F7FAB7
:1037F000281C012100F07CFF002038BD30B5081CDA
:1038000087B00C1CFEF796FCE368051CDB680B48D0
:10381000DB689A68596800230093019003A801F0BF
:10382000EDFA201C01F0DBFA039804F01BFB011CED
:10383000281C00F0F5FE002007B030BD00007F43DB
:1038400008B50368C9B21B68984708BDF0B5FE4EBD
:1038500085B0301C01F01AFA05230193FB4AFC4B9A
:103860000092029330680021052301F0EBF9F94A38
:10387000F94B0424009202930194231C3068002128
:1038800001F0E0F9F54B0027009301940297391CF1
:103890003068F34A062301F0D5F9F24B0194009306
:1038A000F14B01210293F14A0723051C01F0CAF9EB
:1038B000EF4B01940093EF4B281C02930121EE4A39
:1038C000072301F0BFF9ED4B019400930297391CD7
:1038D0003068EB4A072301F0B5F9E24B01940093FD
:1038E000E84B01210293E14A0723051C01F0AAF9E4
:1038F000E54B01940093E54B281C02930121E44A17
:10390000072301F09FF90323E24A0193E24B00925F
:103910000293281C0121032301F094F90323DF4AB9
:103920000193DF4B00920293281C0121032301F035
:1039300089F9DC4B01940093DB4B281C0293012195
:10394000DA4A092301F07EF9D94B01940093D94B4F
:10395000281C02930121D84A092301F073F9D74B9F
:1039600001940093D64B281C02930121D54A0723CA
:1039700001F068F9D44B01940093D44B281C0293B6
:103980000121D34A072301F05DF9D24B0194009342
:103990000297391C1A1C3068231C01F053F9CE4BD6
:1039A00001940093CD4B01210293CD4A072301F0EE
:1039B00049F9CC4A0223009201930297391C3068DE
:1039C00001F040F9C84B01940093C84B01210293C8
:1039D000C74A0523051C01F035F9C64AC64B0092BB
:1039E00002930194231C281C012101F02BF9C34BE5
:1039F00001940093C24B281C02930121C14A092360
:103A000001F020F9C04B01940093C04B281C029395
:103A10000121BF4A0A2301F015F9BE4ABE4B0092AC
:103A200002930194231C281C012101F00BF9BB4BCC
:103A300001940093BA4B281C02930121B94A072331
:103A400001F000F9B84B01940093B84B281C029385
:103A50000121B74A062301F0F5F89E4B019400932B
:103A6000B44B281C02930121231C9A4A01F0EAF866
:103A7000B14B019400930297391C3068AF4A05237B
:103A800001F0E0F8AE4B01940093AE4B012102939C
:103A9000AD4A0723051C01F0D5F8AC4B0194009307
:103AA000AB4B281C02930121AA4A082301F0CAF853
:103AB000A94B01940093A94B281C02930121A84A09
:103AC000072301F0BFF8A74A03230092019302974E
:103AD000391C306801F0B6F8A34B01940093A34B56
:103AE00001210293A24A0623051C01F0ABF8A14B69
:103AF00001940093A04B281C029301219F4A0823A4
:103B000001F0A0F89E4B019400939E4B281C029359
:103B100001219D4A072301F095F89C4B01940093E5
:103B20009B4B281C029301219A4A072301F08AF833
:103B3000994B01940093994B281C02930121984AB8
:103B4000072301F07FF8974B01940093964B281CB4
:103B500002930121954A062301F074F8944B0194D5
:103B60000093944B281C02930121934A052301F0F2
:103B700069F8924B01940093914B281C0293012108
:103B8000904A0A2301F05EF88F4B019400938F4B0B
:103B9000281C029301218E4A0A2301F053F88D4B11
:103BA000019400938C4B281C029301218B4A0A2319
:103BB00001F048F88A4B019400938A4B281C029329
:103BC0000121894A0A2301F03DF8884B01940093B2
:103BD000874B281C02930121864A0A2301F032F800
:103BE000854B01940093854B281C02930121844A44
:103BF0000A2301F027F8834B01940093824B281C81
:103C000002930121814A0C2301F01CF8804B01949E
:103C10000093804B281C029301217F4A0C2301F062
:103C200011F82D4B019400930297391C30687B4AA0
:103C3000082301F007F87A4A7A4B00920293019424
:103C4000231C0121051CEFE0EC0300206EA5000001
:103C50007128000074A500008D28000080A50000D8
:103C600079A5000085A500005D2F000058A8000080
:103C700093A500007D3200008AA50000A1A50000E8
:103C800099A50000D12A0000A6A50000192B00006C
:103C900048A80000ABA5000039290000AFA500002E
:103CA00057290000BDA50000B1290000B3A5000000
:103CB000CCA50000E1290000C2A50000D9A50000A4
:103CC000412A0000D1A50000E6A50000892A0000D5
:103CD000DEA50000D4A50000F3A50000ED3400002F
:103CE000EBA50000F8A50000FBA50000A92F00002F
:103CF00009A6000000A60000F12F00000FA600009A
:103D0000E133000005A600001FA6000011340000EA
:103D100014A6000024A600003930000031A60000DF
:103D20007529000029A6000036A60000112A00000F
:103D3000B6A500003D33000041A600003BA60000F0
:103D40004EA600004134000046A600005CA600001C
:103D50008134000053A6000069A60000B7340000BB
:103D600061A600006EA6000079A60000E12D00000B
:103D700072A6000087A60000953600007EA600000F
:103D80008CA60000E9280000CEA6000091A6000045
:103D900011290000DEA6000096A6000021360000D2
:103DA00077A800009BA600003936000068A8000034
:103DB000A6A6000051360000A0A60000B6A600008E
:103DC000612B0000ABA60000C6A60000B12B0000CE
:103DD000BBA60000D6A60000012C0000CBA6000068
:103DE000E6A60000512C0000DBA60000F6A60000AD
:103DF000A12C0000EBA6000006A70000F12C00009B
:103E0000FBA6000018A70000412D00000BA7000032
:103E10002AA70000912D00001DA700002FA7000079
:103E200038A70000A931000000F00CFFE84B019416
:103E30000093E84B281C02930121E74A082300F075
:103E400001FFE64B01940093E54B281C02930121EE
:103E5000E44A0D2300F0F6FEE34B01940093E34B9C
:103E6000281C02930121E24A0D2300F0EBFEE14AF7
:103E7000E14B009202930194231C281C012100F0C5
:103E8000E1FEDE4B01940093DD4B281C02930121DF
:103E9000DC4A0B2300F0D6FEDB4ADC4B0092029397
:103EA0000194231C281C012100F0CCFED84B281CB7
:103EB000009302230193D74B01210293D64A0A2390
:103EC00000F0C0FED54B281C009305230193D44B72
:103ED00001210293D34A052300F0B4FED24B019492
:103EE0000093D24B281C02930121D14A052300F0F4
:103EF000A9FED04B019400930297391C3068CE4A3A
:103F00000B2300F09FFECD4B01210093062301936C
:103F1000CB4BCC4A02930923051C00F093FECA4BFD
:103F200001940093C94B281C02930121C84A07231E
:103F300000F088FEC74B281C009305230193C64B55
:103F400001210293C54A092300F07CFEB04B281CD6
:103F5000009302230193C24B01210293AE4A0A232C
:103F600000F070FEBF4B281C009303230193BE4B4F
:103F700001210293BD4A0D2300F064FEBC4B281CB6
:103F8000009303230193BB4B01210293BA4A0E23F2
:103F900000F058FEB94A0323009201930297391C9E
:103FA000306800F04FFE0623B54A0193B54B0092EE
:103FB00002930121062300F045FE984B01940093E3
:103FC0000297391C3068B04A082300F03BFEAF4B23
:103FD00001940093AE4B01210293AE4A0523051CC8
:103FE00000F030FEAC4B01940093AC4B281C0293C4
:103FF0000121AB4A0A2300F025FEAA4B019400934D
:10400000A94B281C02930121A84A0A2300F01AFE9A
:10401000A74B01940093A74B281C02930121A64AA9
:104020000A2300F00FFEA54B01940093A44B281C1B
:1040300002930121A34A0A2300F004FEA24B01943B
:104040000093A24B281C02930121A14A092300F0EE
:10405000F9FDA04B019400939F4B281C0293012172
:104060009E4A0A2300F0EEFD9D4B281C0093062378
:1040700001939C4B012102939B4A0A2300F0E2FD2D
:104080009A4B019400939A4B281C02930121994A60
:10409000052300F0D7FD984B01940093974B281C03
:1040A00002930121964A062300F0CCFD954B019422
:1040B0000093954B281C02930121944A052300F09C
:1040C000C1FD934B01940093924B281C0293012154
:1040D000914A0A2300F0B6FD904B01940093904B57
:1040E000281C029301218F4A082300F0ABFD8E4B60
:1040F0003068391C0093019402978C4A052300F024
:10410000A1FD8B4B019400938A4B012102938A4AB3
:104110000623051C00F096FD884B01940093884B04
:10412000281C02930121874A072300F08BFD864B50
:1041300001940093854B281C02930121844A082393
:1041400000F080FD834B281C009305230193824BD4
:1041500001210293814A0A2300F074FD804B0194EF
:104160000093804B281C029301217F4A082300F012
:1041700069FD7E4B019400937D4B281C0293012125
:104180007C4A072300F05EFD7B4B019400937B4B40
:10419000281C029301217A4A052300F053FD794B34
:1041A000281C009305230193774B01210293774A42
:1041B0000A2300F047FD764A764B00920293019461
:1041C000281C0121032300F03DFD05B0F0BDC046D1
:1041D00046A70000292E00003DA7000059A70000B7
:1041E0007D3000004BA700006CA70000BB30000032
:1041F0005EA7000071A70000F931000082A700004F
:10420000752E000076A7000087A70000F930000097
:1042100003A8000059310000F7A7000092A7000092
:10422000932900008CA700009DA70000BD2E000070
:1042300097A70000AEA70000A2A70000BDA700003E
:1042400099430000B3A70000CCA700001944000068
:10425000C4A70000DBA7000041350000D1A7000083
:104260008D350000EFA70000C1350000E1A7000078
:1042700002A80000F5350000F3A7000006A8000022
:104280000AA800009944000011A8000020A800001E
:10429000292800001AA8000030A8000041280000CA
:1042A00025A8000040A80000BD32000035A800008D
:1042B00050A80000FD32000045A8000060A80000E2
:1042C000FD2E000055A800006FA80000B1280000D6
:1042D00065A800007FA80000C328000074A80000A3
:1042E0008FA800006D32000084A800009CA8000088
:1042F0004132000096A80000A8A800005732000034
:10430000A1A80000B3A80000D5280000ADA80000B7
:10431000C3A8000055280000B8A80000CCA80000E1
:10432000492F0000C8A80000D7A80000D1A80000AD
:104330009BA600000935000068A8000096A60000B2
:104340002535000077A80000E5A800001937000017
:10435000DCA80000F5A80000ED360000EAA8000087
:1043600004A9000045370000FBA8000013A90000C5
:104370008137000009A9000018A90000C13700001A
:1043800022A9000028A90000DF3700001DA90000B5
:104390002EA90000FD370000CB6830B5DB681B4854
:1043A000DB6887B0DB680C1C9A68596800230093AF
:1043B000019003A800F022FD201CFDF7BBFE051CA8
:1043C000201C00F00CFDE368DB68DB685B68587953
:1043D0003038C0B200F0DCFE039803F043FD291C26
:1043E000C0B200F0E9FE0A4C0112051CC9B2201C43
:1043F00001F064FFE9B2201C01F060FF201C0549B8
:1044000001F050FB002007B030BDC0460000FE4266
:104410006C06002092A90000CB6830B5DB681B4811
:10442000DB6887B0DB680C1C9A685968002300932E
:10443000019003A800F0E2FC201CFDF77BFE051CA8
:10444000201C00F0CCFCE368DB68DB685B68587913
:104450003038C0B200F09CFE039803F003FD291C25
:10446000C0B200F0A9FE0A4C0112051CC9B2201C02
:1044700001F024FFE9B2201C01F020FF201C0549B7
:1044800001F010FB002007B030BDC0460000FE4226
:104490006C06002092A9000038B5081C0C1CFDF722
:1044A00049FE051C201C00F09AFC3B4C7021201C8E
:1044B00001F0CEF8201C291E012900D00221FFF7AF
:1044C000BFF9201C01F07BF9201C482101F0C0F845
:1044D000201C0121FFF7B4F9201C0421FFF7B0F9DB
:1044E0008721201CFFF7ACF9201C01F068F902209D
:1044F00001F05CFA201C482101F0AAF80021201CE0
:10450000FFF79EF9201C01F05AF9C8239B00013BDC
:10451000FDD1214C4821201C022201F0EDF8002899
:104520002ED0201C01F050F9051C201C01F04CF984
:10453000FF231D402D0203402B43580905F074FD55
:10454000124B114A04F0B6FF05F0FEFD05F0AAFD7E
:104550000F4A104B04F04CFB05F0F6FD0521FDF76A
:104560000BFE0E490E4801F09DFA201C702101F04F
:104570006FF8201C0021FFF763F9201C01F01FF9E0
:10458000002038BDC046C0464E5E64027E8D943F1A
:1045900068D0D03FC1C5B23F3004002092A90000CE
:1045A0006C060020C046C04608B5031C1020012B35
:1045B00003D00020022B06D10F2003F039F8013878
:1045C00043425841C0B208BD08B5031C0220012B6C
:1045D00003D00020022B06D1052003F029F8013872
:1045E00043425841C0B208BD012802D1044B5B6868
:1045F00003E0022802D1024B9B68D9607047C04695
:10460000F8030020012802D1044B5B6803E0022874
:1046100002D1024B9B6899607047C046F8030020A6
:1046200001280CD10A4B19600A4B9B68DA05FBD4B0
:10463000094B8000C358187C0028F1D1704702282C
:10464000F6D1064B1960034B9B689A05FBD4EFE744
:104650004424004200240042F80300204824004281
:1046600010B5041C2D20012C02D0022C0ED12C20C0
:10467000FDF72EFE0420FDF753FDFEF747F8044B2F
:10468000A400E358996803F04DFF00E0014810BD15
:10469000F8030020000080BF08B5012801D12D20BB
:1046A00002E0022808D12C20FDF712FE0420FDF7BD
:1046B00037FDFEF72BF800E0004808BD000080BF82
:1046C00008B5031E012B06D12F20FDF701FE0420A3
:1046D000FDF726FD08E00020022B07D10420FDF79E
:1046E0001FFD2E20FDF7F4FDFDF7E2FF08BD0000E1
:1046F000F0B585B00C1C009001F052F900994C4BBC
:104700008E00F7584B4B3968051C421A9A4201D863
:10471000002C14D001F044F9454A3860965973686A
:10472000ED1AFA239B009D4201D8002C07D001F01E
:1047300037F970600098FFF737FF002805D13E4930
:104740003E4801F0AFF905B0F0BD0098FFF73CFF1F
:104750000028F4D03A4901910098FFF781FF009AB0
:10476000334F9600F359354D0A2259690290281C9F
:1047700001F0FFF9F4590298E368191C039303F060
:10478000FBFF4000400805F08DFC284B264A03F053
:1047900007FB0028D3D1656929498D4208D10298C9
:1047A000039903F037FB00280FD00098244909E053
:1047B000002D0AD10298039903F040FB002804D091
:1047C0000098291CFFF72CFFB9E70298039903F022
:1047D00035FB002801D0013D00E0013565610A226A
:1047E0006169164801F0C5F91649144801F048F905
:1047F000BB5913495A698A4200D9596159690098CD
:10480000FFF70EFFBB595B69012B98D00C4A93420E
:1048100000D194E70A2001F0C9F8019B013B019304
:10482000002B99D18BE7C0467B14AE47E17A843FD9
:10483000F80300201027000092A900006C06002059
:10484000FF0300006CA50000F8B5182001F0ECF89B
:104850000C4F0D4DFE260024B605FF238760C66071
:1048600004604460047468604361182001F0DCF85F
:10487000FF238760C6600460446004744361A860DD
:10488000F8BDC0468FC2DDC0F8030020F7B5041C98
:10489000006903F071FF051C01F082F8A368C01ADB
:1048A00004F056F9071C391C281C03F03BFE616814
:1048B00003F0F0FA21686060061C281C03F05CFF1E
:1048C000391C03F04BFC274903F048FC237B071CF1
:1048D000281C002B16D0616903F024FEA169019009
:1048E000301C03F01FFE011C019803F0D3FAE169AC
:1048F000061C381C03F016FE011C301C03F0CAFA1B
:10490000216A15E0616A03F00DFEA16A0190301C76
:1049100003F008FE011C019803F0BCFAE16A061CD2
:10492000381C03F0FFFD011C301C03F0B3FA216BAF
:1049300003F0B0FA0021061C03F06CFA002809D13C
:10494000FE21301C890503F079FA002803D0FE26E9
:10495000B60500E0002601F023F8A0602560301CB9
:10496000FEBDC04600007A4413B5224C201C00F066
:1049700075FD00236A46537113711F49019A201C6B
:10498000009100F09BFD1920012102F021FE1B4B3C
:10499000201C197800F0C0FD194B201C197800F07C
:1049A000BBFD184B201C197800F0B6FD164B201CDF
:1049B000197800F0B1FD154B201C197800F0ACFD02
:1049C000A023013BFDD10620012102F001FEA0231E
:1049D000013BFDD10620002102F0FAFD0021192043
:1049E00002F0F6FD034C201C00F084FD201C00F0BA
:1049F0005DFD13BD200400201027000005040020E9
:104A000007040020080400200404002006040020FD
:104A100008B5012803D1074B0C211A7804E00228BD
:104A200004D1044B04211A780A431A70FFF79CFF43
:104A300008BDC0460604002008B5012803D1074B75
:104A40000C211A7804E0022804D1044B04211A78BE
:104A50008A431A70FFF788FF08BDC046060400208D
:104A600008B5012803D1074B02211A7804E0022877
:104A700004D1044B01211A780A431A70FFF774FF1E
:104A800008BDC0460604002008B5012803D1074B25
:104A900002211A7804E0022804D1044B01211A787B
:104AA0008A431A70FFF760FF08BDC0460604002065
:104AB00008B50122082802DC064B082101E0064B5C
:104AC0001021081A197882400A431A70FFF74CFF28
:104AD00008BDC046040400200804002008B50122D7
:104AE000082802DC064B082101E0064B1021081AB9
:104AF0008240101C1A7882431A70FFF735FF08BDF8
:104B0000040400200804002008B50122082802DC63
:104B1000054B013801E0054B0938197882400A43FA
:104B20001A70FFF721FF08BD0704002005040020CC
:104B300008B50122082802DC064B013801E0064BCB
:104B400009388240101C1A7882431A70FFF70CFF54
:104B500008BDC0460704002005040020054A08B52A
:104B600000231370044A1370044A1370FFF7FCFE0D
:104B700008BDC046060400200404002008040020EC
:104B8000F0B5002785B0061C00913D1C01973C1C28
:104B9000009B9C4224D0335D3A2B05D0202B03D0C0
:104BA000009B013B9C4219D1102005F0BDFB002366
:104BB0000370C360009BF219013BE71B42608760F2
:104BC0009C4201D101378760002D01D0E86000E0F0
:104BD0000190335D671C051C202B01D00134D7E701
:104BE000012701347F42009B9C4228D2335D02930F
:104BF0007B1C05D1029805F081FB002800D1271C01
:104C0000009B013B0393029B2C2B02D0039B9C42F5
:104C100013D1102005F088FB01230370F3194360C2
:104C20000023C360039BE71B87609C4201D10137CF
:104C300087600127E8607F42051C0134D3E70198B3
:104C400005B0F0BDF8B5051C171C1E1C041C01297D
:104C500000D14469002C04D11C2005F065FB68617B
:104C600008E02369002B01D01C1CFAE71C2005F08A
:104C70005BFB2061002303614361069B0760836047
:104C8000079B4660C360089B8361F8BDF0B5051CB7
:104C900087B01C2005F048FB1B4B0024042728602C
:104CA0000121046044608460C460846104614461E3
:104CB000164A0093019702940623FFF7C3FF144B93
:104CC00002940093032301930121124A0523061C39
:104CD000FFF7B8FF104B0197104F05900093029714
:104CE000301C01210E4A0623FFF7ACFF0D4A0523B5
:104CF00000920193029705980121FFF7A3FF6C60D2
:104D0000AC6007B0F0BDC04639A9000032A9000070
:104D100044A900003EA900004FA90000495100002D
:104D200048A9000054A9000070B504680D1C0023B8
:104D3000002D03D15B42201C18402AE02A78002A6B
:104D4000F8D1002C09D1ED6807E0AE6863689E4297
:104D500006D0E3689E420FD02469002CF5D113E001
:104D600068682168321C05F0F3FA0028F1D1626905
:104D7000ED68002A0AD107E06868A168321C05F0D6
:104D8000E7FA0028E8D1F2E7201C02E00123141C16
:104D9000CEE770BD38B5051C081C111CFFF7F0FEEE
:104DA000041C211C281CFFF7BFFF002806D08369C4
:104DB000002B05D0281C211C984702E0FF2000E0B2
:104DC000FE2040B238BD38B50C1C002806D0A042E9
:104DD00004D0C56805F0B2FA281CF6E738BD08B55E
:104DE0000021FFF7F0FF08BD031C0020012904D1BA
:104DF0001878313843425841C0B27047F0B58DB091
:104E000009910A920E1C059200210022071C0B93A7
:104E10000191029108910C1C069107910D1C0492BE
:104E20000599002900D111E1002D4FD13378181CCC
:104E3000039305F063FA002800D002E105990629E2
:104E40001CD9039A442A1CD17378452B00D0F6E074
:104E5000B378462B00D0F2E0F378412B00D0EEE09F
:104E60003379552B00D0EAE073794C2B00D0E6E083
:104E7000B379542B00D0E2E00B9B0DE00599022999
:104E800018D9039A4D2A15D17378412B06D1B378DE
:104E9000582B00D0D3E0139B3B6008E0492B00D097
:104EA000CDE0B3784E2B00D0C9E0129939600023D1
:104EB0007B6007E1039A2B2A0AD02D2A08D0131C05
:104EC000303B092B00D9BAE002250BE0012D06D1B9
:104ED00033782B3B191C4B1E99410791F6E0AB1E12
:104EE000012B1FD833781A1C303A0392092A13D8A1
:104EF0000498794903F016FB0490039803F0CCFD65
:104F0000011C049802F0C6FF0490032D00D0DDE0E0
:104F1000069B0133069394E02E2B00D188E0652B8D
:104F20001AD187E0042D0AD133782B2B00D188E0E9
:104F30002D2B00D1CCE0303B092B02D97FE0052D91
:104F400008D13378303B092B06D80A225443052573
:104F5000E41876E0062D06D1307805F0CFF9062565
:104F600000286ED101E0072D51D13378181C433849
:104F7000372846D802F0A4FE33313F453945454530
:104F800045453745453D4545453B454545454341F7
:104F900045454545454521452D2F45234545454535
:104FA00035452B27452545454545294545451C1E85
:104FB000183C00E0153C082543E0123CFBE70F3CA1
:104FC000F9E70C3CF7E7093CF5E7063CF3E7033C5F
:104FD000F1E7023CEFE7013CEDE70134EBE7023497
:104FE000E9E70334E7E70634E5E70934E3E70C349F
:104FF000E1E70F34DFE71234DDE71534DBE718347F
:10500000D9E7181C05F084F9002802D117E0082D13
:1050100017D1307805F068F9002804D002990029EA
:105020000AD1029608E0029A002A07D1019206E00E
:10503000032506E0042504E0092502E00196012588
:105040006D42059B0136013B0593E9E6029A002A71
:1050500007D0019B002B04D10A9B0999013BCB1877
:105060000193089A002A00D06442069B0120E41AAA
:105070000023002C0BDD0A2201335043A342FAD156
:1050800003F00AFD011C049803F04CFA0BE0002C1D
:1050900003D00A2358430134F9E703F0FDFC011C57
:1050A000049803F05BF80799002902D080221206C9
:1050B0008018029B38607B60002B03D00199029A14
:1050C0008B1A0133381CBB600DB0F0BD0225B8E768
:1050D00001230893B5E7C0460000204184B010B515
:1050E000041C102004920593039105F01DF9039B05
:1050F00000220360049BC2604360059B8360636879
:10510000934202D0A268D06000E06060A06010BC52
:1051100008BC04B01847000010B54468002C09D141
:10512000102005F001F9074B0460436008238360F9
:10513000041C04E0E3684360002B00D18360201C62
:1051400010BDC0465AA9000070B50E1CFFF7E4FF61
:105150000C4C051C29680A22201C00F0F2FC201CC3
:10516000094900F08DFCAA686968201C01F0BCF8B0
:105170000649201C00F096FC301CFFF730FE002092
:1051800070BDC0466C06002063A9000064A9000041
:1051900038B5084C051C7021201C00F059FA201C61
:1051A000291E012900D01021FEF74AFB201C00F027
:1051B00006FB38BD4001002070B5061C03290BD842
:1051C000081C02F07DFD08020406502504E060255D
:1051D00002E0702500E040251C4C311C201C00F032
:1051E00037FA0121201CFEF72BFB7B2149420D439E
:1051F000E9B2201CFEF724FB8721201CFEF720FBD0
:10520000201C00F0DCFA022000F0D0FB201C311C36
:1052100000F01EFA0021201CFEF712FB201C00F0FB
:10522000CEFA201C311C022200F066FA00239842BC
:105230000AD0201C00F0C8FA051C201C00F0C4FA9B
:10524000EDB22D02C3B22B4318B270BD4001002055
:10525000F8B5354C051C291C201C00F0F9F9201C60
:105260000221FEF7EDFA201C3021FEF7E9FA0021B9
:10527000201CFEF7E5FA201C00F0A1FA201C291CD6
:1052800000F0E6F90021201CFEF7DAFA201C00F0FD
:1052900096FA142000F08AFB0422291C201C00F03E
:1052A0002BFA201C00F090FA051C201C00F08CFA50
:1052B0002D02284303F0F0FB1C4902F04FFF04F0DD
:1052C000F1FE164B144A04F0F5F8154A154B04F09C
:1052D00081FB04F039FF0621FCF74EFF144E154DFB
:1052E000301C291C00F0DEFB201C00F06DFA071CAE
:1052F000201C00F069FA3F02384303F0CDFB0B4954
:1053000002F02CFF0421FCF737FF301C291C00F0B1
:10531000C9FBF8BDC046C0460000000000A06440C4
:10532000000000000000444040010020800380474E
:105330006C06002092A900000B4B8200D3581B780A
:10534000012B10D1012806D1084B1960084B9B682E
:105350009A05FBD407E0022805D1064B1960044BDF
:105360009B685A05FBD470470C040020482000427B
:10537000002000424C20004238B5051C0C1C081CC3
:10538000FE21890502F05AFD002807D1201C0021CA
:1053900002F040FD002803D0002401E0FE24A40513
:1053A0000549201C03F0BEF802F05CFD011C281C1E
:1053B000FFF7C2FF38BDC046FFFF7F4B10B500218D
:1053C000041CFFF7B9FF034BA400E35800221A7036
:1053D00010BDC0460C04002010B50021041CFFF7CE
:1053E000ABFF034BA400E35801221A7010BDC04666
:1053F0000C04002038B5012000F016FB044C0025F9
:1054000005706060012000F00FFB0570A06038BDE2
:105410000C040020437A002B04D18372C372C36052
:1054200001234372704730B585B0041C02AD00689B
:105430000291039200F0A8FC6B79E179227A009343
:105440002068002300F008FE29792068029A00F005
:105450006BFC206800F08EFC05B030BD70B5041CFC
:105460001826FFF7D7FF2079331C43430D4D082141
:10547000EB18595602F0F4F8A079331C4343082185
:10548000EB18595602F0ECF8607908214643AD1943
:10549000695602F0E5F8044B201C06CBFFF7C3FF6A
:1054A00070BDC04610AA00001804002010B5041CEE
:1054B000006800F051FC0023637210BD07B5837AC9
:1054C00000910192002B0DD09A0706D5EFF31083BF
:1054D0005A425341C37272B604E0DA0702D5828998
:1054E000034B9A600099019AFFF79DFF07BDC046E4
:1054F00000180040837A002B0BD09A0704D5C37A9A
:10550000002B06D062B604E0DA0702D58289014B8F
:10551000DA6070470018004008B5006800F03DFCF4
:1055200008BD0000094B0A4A0A491A6000225A7154
:105530001A71094B196016211971182199711721D7
:10554000597101215A72D9711A72704718040020DA
:1055500000093D00D00D00202004002000207047ED
:10556000F8B5051C0F1C161C0024B44208D02B688B
:10557000395D1B68281C9847002801D00134F4E7E6
:10558000201CF8BD7047031CFC33196ADA6991428C
:1055900003D01B6AC018007E01E001204042704722
:1055A000031CFC33D8691B6AC01A01D50130FF30D7
:1055B00070470000F7B50193FA239B008360134BFB
:1055C0008026002576000833041C0F1C4560291C2A
:1055D00000920360321C183004F0D2FE231C90228B
:1055E000FC335200DD61A0181D62321C291C04F03E
:1055F000C7FE87229200A3185D60019A9D60009B00
:105600002761A575201C23756275FEBD68A9000081
:1056100070B50D49041C006900F042FD206900F0DE
:10562000D7FB1826207D331C4343084D0821EB1877
:10563000595602F015F8607D08214643AD196956A8
:1056400002F00EF870BDC046A086010010AA00004E
:105650008A2387229B009200C154831800225A603B
:105660009A60012383757047031CFC335A6810B598
:1056700001329C68D2B2A24202D05C6801555A60E5
:1056800010BDF7B501930023041C151C181C9A4289
:1056900031D0221CFC32D36120691362012200F058
:1056A000D3FB002825D0206900F03DFC271C1837CB
:1056B000011C381CFFF7D8FF01262069AE420ED02E
:1056C00000F0A2FB0221206900F0A8FB206900F095
:1056D0002AFC011C381CFFF7C7FF0136EDE700F07C
:1056E0008BFB019B002B05D02069032100F096FB6A
:1056F00000E0051CE8B2FEBD08B50123FFF7C1FFBD
:1057000008BD10B5827D00239A420DD08724A400E5
:105710000219546892680134E4B2944204D02130F2
:10572000FF30FFF7A1FF0123181C10BD031CFC3341
:1057300099685A68914206D09A68805C9A680132EA
:10574000D2B29A6001E001204042704770B5002259
:105750008A2382759B00041C0E1CC15C006900F04A
:1057600073FB002805D12069032100F057FB0225B7
:1057700023E090235B00E01887239B00E218516828
:105780009368CB1A01D50133FF33002B0ED0256966
:10579000FFF7CCFFC1B2281C00F085FB0028E8D140
:1057A0002069032100F03AFB032506E01D1C002EB2
:1057B00003D02069032100F031FB281C70BD08B51F
:1057C0000121FFF7C3FF08BD08B51830FFF7AEFF92
:1057D00008BD38B5041C006900F083FB002800D127
:1057E00084E0206900F08BFB00280ED1206900F0D6
:1057F00090FB00281FD0206900F086FB00281AD0FB
:10580000206900F08BFB002815D1206900F0FCFA1C
:105810002069032100F002FB8C239B00E558002D3A
:1058200004D02368201C1B699847A847FC34002338
:10583000E36123625AE0206900F06BFB031C2069DE
:10584000002B19D000F0E0FA2069032100F0E6FAFD
:10585000206900F063FB002848D087229200A3183B
:1058600000225A609A600123A3758B239B00E358A2
:1058700093423BD0984739E000F03CFB002835D0FC
:10588000206900F04BFB002816D087239B00E2180C
:1058900051689368CB1A01D50133FF33FF21002BE8
:1058A00005D090225200A018FFF740FFC1B2206936
:1058B00000F00AFBA07519E0231CFC33DA691B6AAF
:1058C0000132D2B220699A4202D100F095FA09E081
:1058D00000F029FB011C201C1830FFF7C5FE2069D1
:1058E00000F092FA2069032100F098FA38BD000018
:1058F00008B50248FFF76DFF08BDC0463004002020
:1059000008B50348034914221523FFF753FE08BDC9
:1059100030040020C00D0020FEE7000008B5034B56
:105920001B68002B00D0984708BDC04664060020C5
:1059300038B50F490F4CA14204D100F0DBFB00F059
:1059400053F80BE00C4D8D42F7D00023CA18E8182D
:10595000A24204D2006804331060F7E7FEE79042E9
:10596000EBD0064B064A9342E7D2002204C3F9E784
:10597000000000202001002090B000002001002045
:10598000F40D002008B500F02CF8002801D100F03B
:105990001DF808BD014B18607047C0466406002022
:1059A000014B18687047C0466806002070B5041E99
:1059B00008D0054B1D681E1C00F012F833685B1BF5
:1059C000A342F9D370BDC0466806002008B5034B5A
:1059D0001A6801321A6000F0EFF808BD680600206E
:1059E000704700207047704710B501F0F1FC04F0DB
:1059F00055FCFFF7F8FF0120FFF7D8FF084C201CEB
:105A000000F04AFF201C00F0BFFFFCF773FCFCF71E
:105A10003DFC044B002BFAD000E000BFF7E7C04686
:105A2000370B00200000000008B504F07DFC08BD25
:105A3000F7B58A18061C0D1C01920C1C019B671BF4
:105A40009C4207D0336821781B68301C984701348A
:105A50000028F3D1381CFEBD08B50368C9B21B6825
:105A6000984708BD38B5051C0C1C081E07D004F06B
:105A70003DFD2B68021C5B68281C211C984738BD23
:105A800008B5FFF7EFFF08BD08B503681B68984726
:105A900008BD000008B50249FFF7E4FF08BDC04695
:105AA00090A9000038B5041CFFF7DCFF051C201C82
:105AB000FFF7F0FF281838BDF0B58DB0161C0BAB02
:105AC000002201900C1C1A70012E00D80A266D4687
:105AD0002B35201C311C02F041F9201CCFB2311CA7
:105AE00002F0F8F8291C041C092F01D8303700E017
:105AF0003737FFB22F70013D002CEAD10198FFF734
:105B0000B1FF0DB0F0BDF8B5041C0D1C161E04D17C
:105B10000368C9B21B68984712E00A2A0DD1002910
:105B20000ADA2D21FFF7B0FF6942071C321C201C46
:105B3000FFF7C2FFC01903E000E0D2B2FFF7BCFFDD
:105B4000F8BD08B5FFF7DFFF08BD38B5041CFFF747
:105B5000DAFF051C201CFFF79DFF281838BD38B55B
:105B6000041CFFF7D0FF051C201CFFF793FF401912
:105B700038BD08B5002A02D1FFF76EFF02E0D2B2AD
:105B8000FFF79AFF08BD38B5041CFFF7F2FF051CAC
:105B9000201CFFF77FFF281838BD0000014B18605C
:105BA0007047C04600000020024B012252421A609A
:105BB0007047C04600000020154A1368581C25D0C5
:105BC000013B1360002B21D172B6124A124B0432F2
:105BD0009A4207D8BFF34F8F104A114BDA60BFF3D8
:105BE0004F8F11E00F4B197DC807FBD5188B202173
:105BF000FF319208520001431983DA610A4A1A8080
:105C00001A7DD107FCD5E5E7C046FDE77047C046E1
:105C10000000002000200000030200000400FA053C
:105C200000ED00E00040004102A5FFFF0160704769
:105C3000F7B508AC267804689D1E27686C1EA54140
:105C4000ECB2920705683A4327063A432A60026895
:105C5000072529405068B501002C00D05C0329437A
:105C600001430C435460F7BD30B50368C0251C6880
:105C7000AD0312052A402243C024A4020904214096
:105C80001143196003685A6814435C6030BD0368AF
:105C900001211A680A431A60026811680123194237
:105CA000FBD1D1691942F8D17047036802211A6803
:105CB0000A431A600268D3699907FCD470470368E5
:105CC0001A7ED10702D41A7E9107FCD5704703686B
:105CD00000225A8370470368187E4007C00F704740
:105CE0000368187EC009704703688022197E5242FB
:105CF0000A431A7670470368187E012318407047DC
:105D00000368188DC0B2704703681A7E01200242F2
:105D1000FBD019857047036801229A7570470368A4
:105D200001221A757047000070B5036801268D07BF
:105D3000ED0F31401C686D070907294321431960A5
:105D400004685100034801F0C5FF0138C0B2207358
:105D500070BDC046006CDC02036801211A680A436A
:105D60001A600268116801231942FBD1D1691942F6
:105D7000F8D17047036802211A680A431A60026862
:105D8000D3699907FCD470470368DA699107FCD49A
:105D90001A6802218A431A60704703689A6A520A95
:105DA00052021143996203681A7E5107FCD5986A22
:105DB000C0B27047036801211A680A431A6002687A
:105DC000116801231942FBD1D1691942F8D17047FA
:105DD000036802211A680A431A600368DA699107A6
:105DE000FCD45A8B30218A4310210A435A8302681B
:105DF000D3695907FCD47047036880221968596831
:105E0000D2020A435A6070470368034A1968596806
:105E10000A405A607047C046FFFFFBFF30B5036879
:105E200003241D680C40074A596824040A40ED0603
:105E300022436D0F5A60052D03D10268D3695907BB
:105E4000FCD430BDFFFFFCFF49001143036830B5AF
:105E5000CDB2598B032409092140012904D0598B63
:105E600009090C40022CF4D1596AC90AC902294314
:105E700059620368002A03D11A7ED107FCD50DE0D0
:105E8000187E01224008104008D1197E1142F7D037
:105E90005968C02292020A435A6003E05B8B0120DA
:105EA0009B08984330BD0368283319700268107E40
:105EB0000123184003D1518B1942F8D003E0528BD3
:105EC000181C9208904370470368283319700368C0
:105ED00000201A7E510703D55B8B01209B08984355
:105EE000704703681868C006400F043843425841A1
:105EF000C0B270470368187E4007C00F7047036840
:105F0000187E0123184070470368588BC006C00FE5
:105F100070470368187E8007C00F70470368588B6E
:105F20000007C00F704703681A68D206520F052A8F
:105F300002D11A7E9107FCD528331878C0B2704779
:105F40000368224A30B5934211D0214A934211D0BE
:105F5000204A934211D0204A934211D01F4A9342C3
:105F600011D01F4A934230D10E2319220DE009238C
:105F700014220AE00A23152207E00B23162204E06C
:105F80000C23172201E00D231822DCB21549012051
:105F90009B08A0409B0008605B180320C02189007B
:105FA00004405D58E000FF248440A5432C1CC0251C
:105FB0008540281C204358508023DB011A430A4B9C
:105FC0005A805A7852B2002AFBDB30BD00080042EA
:105FD000000C004200100042001400420018004271
:105FE000001C004200E100E0000C0040F8B5041C79
:105FF000151C0E1C1F1CFFF7A3FF201CFFF747FEFC
:10600000B1001C220A4069072368090C0A431A6080
:10601000226884239375012E1AD10821012D00D105
:1060200010210C4B79431868C00001F053FE23681F
:1060300007219A890140D2044903D20C0A439A816C
:1060400023680004C20C9889400B400310439881D8
:10605000F8BDC04680000020F7B5019308AB041CD2
:106060001F780D1C161CFFF777FE201CFFF768FF3A
:10607000BF070C221743C022920336051640C022E8
:1060800092022D0423683E430199154035430722AF
:106090001D600A408021236889020A435A60F7BDC7
:1060A00070B5041C0E1CFFF74BFF201CFFF782FE8F
:1060B000236814221A600D4B71001D682468281C87
:1060C00001F008FE0A49061C281C01F003FE7D238E
:1060D000FA215843C90001F0FDFD301AE668FF239C
:1060E000053818409E430643E66070BD80000020DE
:1060F00040420F0070B5494A1E21536802208B436D
:106100000343474953608B69082423438B61454C03
:10611000454B9C829C8A20439882101CDA68940725
:10612000FCD5424A012414701478E50704D53F4C8D
:10613000647864B2002CF7DB01249460547864B274
:10614000002CFBDB3A4D394C6560547864B2002C6E
:10615000FBDB8225354CED016580547864B2002C60
:10616000FBDB02249C84DC68E606FCD5314D2E4C1A
:10617000E562DD682C4CEE06FBD5A58C2E4E354332
:10618000A584DD68284CEE06FBD5A58C0226354398
:10619000A584DC682506FCD5234CE4686606F8D5A2
:1061A000DC68E506FCD500249460547864B2002CC9
:1061B000FBDB224D1D4C656055781C4C6DB2002DEB
:1061C000FADB1E6A1E4D35401D621D6A8026B543EE
:1061D0001D620323A3601B4B636053785BB2002BEB
:1061E000FBDB00230B72184A4B728B72CB72174B7E
:1061F000FF211A60164B174A1B6812685C01D20E09
:10620000214011439A06520F12020B1C1343124AEB
:106210001385436880221343436070BD00400041F2
:10622000000400400C06000000080040000C004084
:1062300001050100B905FF7D040A00000007030005
:10624000FFFCFFFF03060100006CDC028000002061
:1062500024608000206080000040004210B5041CD3
:10626000FFF79EFBE0602368201C5B6998470028CD
:1062700008DAFFF795FBE368C01AA3689842F2D3E7
:106280000120404210BDF7B5002600900191151C79
:10629000B3420FD0D718141C661BBC420AD000981A
:1062A000FFF7DCFF002805DB019B984202D020703D
:1062B0000134F1E7301CFEBD3F20704713B5026882
:1062C0006B46D97107335468191C0122A04716BDCB
:1062D00008B50069022100F041FC08BD08B500695D
:1062E000032100F051FC08BD38B50D1C041C131C23
:1062F000006903212A1C00F043FD002801D101237D
:10630000636038BD10B5054C23685A1C04D103687E
:106310005B6998472060031C181C10BD54000020C6
:10632000074A08B51368591C04D00121494211607D
:10633000181C03E00069022100F014FD08BDC046EE
:106340005400002008B50378034902330370422249
:10635000024800F0CBFD08BD10000020370B0020E4
:1063600010B50178031C42780020A12908D1212A08
:106370002FD118481849072200F0B8FD012028E065
:10638000212926D1202A05D113490722114800F0DE
:1063900041FC04E0222A10D19A780F4BDA710E4B9F
:1063A00096221968D200914210D1DC7901231C4059
:1063B0000CD1FA20FFF7F2FB0AE0232A09D1DA78A0
:1063C0009B7812021A43054B1A6002E0FFF7ECFBC0
:1063D000002010BD370B0020040000200C0000201E
:1063E00070470000064BFA21890099600549002298
:1063F0000831196004495A6019611A767047C0461D
:106400006C060020A0A90000370B002010B5072360
:106410000F220240141C00093034092A00DD073421
:10642000CC54013BF4D210BD70B582291ED1C2B24A
:106430002A495301CB189D69294C80012C40C02565
:10644000AD052C439C61274C0832201858610B681D
:10645000520199180C798020404220430871D15C88
:106460007020814330200143D15435E0002933D1DD
:10647000C2B21A495301CB189E68194DC0242E4050
:10648000A40526439E60184E800109683018083222
:1064900058605201505C0726B043012630435054E7
:1064A0009E6935402C439C610E4C5C61505C7024AD
:1064B000A0431024204350549C680C488A18204064
:1064C000802464032043986098684021800B8003F7
:1064D000986053790B43537170BDC046400B002048
:1064E000FFFFFF8F9407002058090020FF3F00F0B6
:1064F00038B5041C08CC01211A78051C0A431A700F
:106500008022201C0021520003F03AFF2B689A7869
:10651000D107FCD45C6238BD134BF0B51B689903FE
:106520005A029B01C90ED20E5B0F1F2900D1052113
:106530001F2A00D11D22072B00D1032304688E01DE
:10654000278D0A491F2539403143218501682A409A
:106550000C8DAC4322430A8502681903108D044B4D
:1065600003400B431385F0BD246080003FF8FFFF1C
:10657000FF8FFFFFEFF3108303600123436072B6C8
:1065800070470368002B02D162B6BFF36F8F70476C
:1065900037B50569041C6846002D12D1FFF7EAFFE4
:1065A000019B013B03D3621DD57FEDB2F9E768463D
:1065B0000193FFF7E6FF0020854217D0206AE369C8
:1065C00013E0FFF7D7FF019B0025013B04D3221CFA
:1065D00034321578EDB2F8E768460193FFF7D1FF42
:1065E0000020854202D0206BE36AC01A3EBD000045
:1065F000436810B51A68037A01215B01D318FF3391
:106600009A7A0A439A72037A42685B01D318C26885
:106610009C6891040B4A090922400A439A60037A54
:1066200042685B01D3189A684021920B92039A60EA
:1066300043681A68037A08335B01D3181A790A434E
:106640001A7110BDFF3F00F0F7B50569041C0E1C60
:10665000171C6846002D1FD1FFF78CFF019B013BE3
:106660005A1C06D0621DD17F5A1E00293AD0131C35
:10667000F6E768460193FFF784FF0025E369BD4212
:1066800035D0226A934232D25A1CE261A269D318F1
:106690001B7873550135F1E7FFF76CFF019B013B58
:1066A0005A1C08D0221C343215785A1EEDB2002D27
:1066B00018D0131CF4E768460193FFF762FF00252A
:1066C000E36ABD4226D0226B934241D322E0621D91
:1066D0000021D17730321678581E8E4214D1031C17
:1066E0005A1CF4D168460193FFF74BFF38E0226A49
:1066F000934235D10023E361012323616846FFF70C
:1067000039FF019B013BEBE71170201C0193FFF760
:106710006FFFF6E7226B934222D10023E3622361ED
:106720006846FFF727FF019B013B5A1CDAD0221C69
:1067300034320021117001321678581E8E4201D178
:10674000031CF2E71170201C0193FFF751FFEAE7E9
:106750005A1CE262A26AD3181B7873550135AFE761
:10676000281CFEBD37B54368027A1B680832520107
:106770009A18041CD0790123FF21184255D0D371F7
:10678000A068656962680140002D1FD14901521857
:1067900091688904890C2162216A002942D06361D1
:1067A000A36A68465360FFF7E5FE019B013B5D1C51
:1067B00034D0621D0120D0772F3211785D1EC9B20E
:1067C0001218002915D111702B1CF0E74B01D318BA
:1067D0009A689204920C2263226B002A22D0002233
:1067E0006261A26968465A60FFF7C4FE019B013BE3
:1067F00012E0019310706846FFF7C3FE15E0221CFB
:10680000343201201070621DD17F5D1EC9B230325A
:106810000029EED111702B1C5D1CF0D1684601934C
:10682000FFF7AFFE201CFFF7E3FE37BD37B50023AF
:106830006C46E3710734201C0D1CFFF783FD2B68A9
:106840001818286001F02AFA211C01F0E1F92B68E0
:106850001818286020783EBD03290BD10D4BB222B9
:106860001B685200985C80214942014399540221DF
:1068700068220CE001290CD1064B92221B685200C1
:10688000985C802149420143995402212822FF3219
:1068900099547047400B002038B5304B002401213B
:1068A000051C1A201C7000F039FE1A20012100F08E
:1068B0008FFE2B4B192001211C7000F02FFE192098
:1068C000012100F085FE274B2021DA6901200A43CF
:1068D000DA61254B06241A7802431A70234B0F22E3
:1068E00019789143197019782143197020490C784F
:1068F0002043087019780A401A701A7860210A43F8
:106900001A701C4B1C4A5A805A78D209FCD11B4879
:10691000FFF740F81A4C201CFFF7EAFD201CFFF798
:10692000FBFD23687F2219780A401A701A78042127
:106930000A431A701A890C218A431A81C121114A0B
:10694000890050580002000A5050802111601A78C6
:1069500002210A431A7001232B7038BD540900200C
:106960003C0B002000040040584400413C440041DE
:1069700059440041000C004006400000B173000083
:10698000400B002000E100E00078002810D0094B07
:1069900001211B681A898A431A811A8B08210A432C
:1069A0001A831A8B04210A431A83034B00221A60AC
:1069B0007047C046400B0020440C00200F4B9A69E2
:1069C000920B92039A611B680222FF331A72987924
:1069D0008022524202439A711A7A9007FCD5084BE2
:1069E000081C997A7F221040914301439972997A49
:1069F000802252420A439A727047C046400B0020E0
:106A00000050004110B50B790C1C002B0BD1081C59
:106A1000FFF7A6FC002804D1094B9A69920B920358
:106A20009A6101200BE001F039F9211C01F024F9F1
:106A30000028F6D1024B9A69920B92039A6110BD1D
:106A4000400B0020F7B50E1C832A18D1CAB2354975
:106A50005301CB189C693448B6012040C024A405DA
:106A6000204398613148083286195E610B685201F3
:106A7000D15C7020814340200143D15450E0022A70
:106A80004AD12B4A89008D580191002D48D13820D8
:106A9000FEF7CAFF274B80270360224B7F0043602D
:106AA000431D0562866005614561C561C760DD778C
:106AB0002F33041CC56205631D70381C5D7003F024
:106AC00033FCA061381C03F02FFCFF2315491E4046
:106AD0007601A0628E19B168134A07250A40C021C9
:106AE00089050A43B260A1686268194012680831DA
:106AF0004901885CA843032528438854A26861683B
:106B000013405B01A269CB185A60201CFFF770FD8F
:106B1000019B07495C5003E0081C111CFFF784FC33
:106B2000F7BDC046400B0020FFFFFF8F94070020F9
:106B3000180B0020D0A9000038B5051C0124064B15
:106B4000A200D258002A06D0211C281C0134FFF7CD
:106B500079FFE4B2F3E738BD5800002008B5084BD0
:106B60008A00D058002803D003689B68984706E045
:106B7000C9B2044B4901591888688004800C08BDCB
:106B8000180B0020400B002010B50C1CFFF7E6FF8F
:106B900000280CD0064BE1B21B6808314901591896
:106BA0004A7980235B4213434B710223CB7110BDA2
:106BB000400B002070B5CAB2134B14485401890130
:106BC0005918031959609D681149083229408025D8
:106BD000AD022943996099684026890B8903996021
:106BE0000368510159180D7935430D715101591838
:106BF00089794D06FAD551015918C979CD07FAD5C9
:106C00000419A068C0B270BD58090020400B0020D4
:106C1000FF3F00F038B50C4B141C1B680D1CFF33F4
:106C20005A7940210A435A710021FFF7C3FFA0425D
:106C300000D9201C0023A34204D0044A9A5CEA54E1
:106C40000133F8E738BDC046400B0020580900204A
:106C500010B5C9B20C48490143189A689204920CC5
:106C60003F2A08D9141C9A68403CA404920BA40C37
:106C70009203224302E09A68920B92039A604118B1
:106C80008868C0B210BDC046400B0020F0B51C1C87
:106C90002F4B85B01B68061C0D1C0292002B51D097
:106CA0002C4F3978C9B2002902D1192000F090FC8C
:106CB00064233B70284BAA00D058002805D00368F5
:106CC00002995B68221C984740E0301C291CFFF7A2
:106CD00045FFA04204D2301C291CFFF73FFF041CD3
:106CE000291C301CFFF7B4FF1C4FE9B24A01019187
:106CF000396803928B18FF335A7A01210A431849E5
:106D00005A72AB01C9180298221C03F030FB002C08
:106D10001BD0301C291CFFF721FF002815D1019B37
:106D20003A6808335B01D31819794020014319717F
:106D30000121D97103995318FF339A7A01210A432B
:106D40009A7202E00120404200E0201C05B0F0BD34
:106D5000440C00203C0B0020180B0020400B0020AE
:106D60005809002013B56C460734221C0123FFF795
:106D70008DFF012801D1207801E00120404216BD9D
:106D8000F0B51C1C3F4B85B01B680E1C0292002BFB
:106D90006AD08023DB019C4266D83B4D2978C9B27A
:106DA000002902D11A2000F013FC642300222B706A
:106DB0000092002C56D0354DF7B22B6801933B1C46
:106DC0000833019A5B01D3189B79DB091AD0304B49
:106DD0003049186800F07EFF2F4B1721584300F010
:106DE00079FF3B1C0833019A5B01D318DB799A07C2
:106DF00008D42A4B9A5D002A38D1421E002835D08B
:106E0000101CEEE7254B00229A55251E3F2D00D978
:106E10003F25234AB301D318181C02992A1C039357
:106E200003F0A5FA194A7B01D318039AA9045A6101
:106E30009A69890C920B92030A439A613B1C019A4E
:106E400008335B01D3180222DA7159798022524249
:106E50000A435A71009B029A5B1952190093641BF2
:106E60000292A6E700980BE0012008E001229A5563
:106E70007B01ED18AB69101C9B0B9B03AB6140427F
:106E800005B0F0BD440C002054090020400B002048
:106E90008000002040420F00701101008C0700208C
:106EA0009407002070B50E4D1C1C8B01ED18281C9A
:106EB0000E1C111C221C03F05AFAF6B20949760185
:106EC00089194D618A69084B201C13408B618B69BD
:106ED000A2049B0B920C9B0313438B6170BDC046B5
:106EE00094070020400B0020FF3F00F0F7B5114B46
:106EF00001901B780F1C141C002B19D10E4B1E780F
:106F0000002E01D1151C08E00C4D0D482E8880196B
:106F1000361903F02CFA2E800AE0002D08D0BA1999
:106F20002B1C01980021FFF7BDFF36182D1AF4E73E
:106F3000201CFEBD360B0020340B00208A070020E9
:106F400089060020F8B50E1C00AF151E012D28D9AA
:106F5000D31DDB08DB006A46D21A9546081C03F0F5
:106F6000C5FA01306C464000032320706370022292
:106F7000AA420ED23378002B0BD0511CC9B2013675
:106F8000A354A94204D0002302326354D2B2EFE7E3
:106F90002A1C0548211CFFF7A9FF431E9841C0B2D7
:106FA00000E00020BD46F8BD370B002008B5044BBB
:106FB00000221A70034B04491A88FFF797FF08BD97
:106FC000340B00208A07002089060020F0B5204AF3
:106FD00087B001230026009102A91370051C0296B8
:106FE000FFF724FC03AC092701903A1C201C311C3C
:106FF00003F0C6F902236370A023E371FA2323721E
:10700000029B0122DB196380019B62712371104A8C
:10701000009B27701670BB4205D1281C211C1A1C2E
:10702000FFF764FF11E00B4B01221A700A4B211C81
:107030003A1C281C1E800296FFF758FF281C02A944
:10704000FFF7F4FB281CFFF7B1FF012007B0F0BDEC
:10705000360B0020340B00208A07002070B5CE7854
:1070600092B0051C0C1C022E08D1C9882D48FFF7D0
:10707000ADFF031C581E8341D8B251E000F00EFE54
:10708000211C00F0DAFD002803D0C3171B1AD80F0B
:1070900046E0012E04D1E2882349112A3BD837E08B
:1070A000032E3DD1A278002A05D12049E2880B7831
:1070B00093422DD82FE0022A03D1A279281C1C4923
:1070C00004E0012A05D1A2791A49281CFFF73AFFEA
:1070D00026E0032A24D1184B01A91868FFF796F976
:1070E000164B03A91868FFF791F9154B05A9186805
:1070F000FFF78CF9134B07A91868FFF787F900F021
:10710000CDFD09A900F0A9FDA279281C01A9DDE7A0
:10711000D2B2002A00D10A78281CFFF7E7FE01202E
:1071200012B070BD370B0020F0A90000ECA90000E0
:1071300002AA0000E0A900000CA0800040A080008E
:1071400044A0800048A0800073B5051C48780C1C42
:107150000B2878D800F0B4FD081C7728773E43064A
:10716000474B686F00206FE0097801AA002903D11E
:1071700011705170281C09E0002313705370334BB9
:107180001B78012B00D11370281C002102234FE033
:107190008A780023012A04D101AA137053702C4B62
:1071A000EEE72A4A137049E08E78012E07D1284B6A
:1071B00001AA00211E701170281C331C38E0002E1B
:1071C00008D1224A01231370224A9169890B89034D
:1071D000916138E0A178281CFFF7F0FB33E0281C10
:1071E000FFF73CFF30E0281C00211B4A1FE00A7813
:1071F0000020D30628D1281CFFF79EFCA278154951
:10720000154B02241A600A682A23FF33D05C2043FE
:10721000D0544A20FF30145C01231C4314548A6963
:10722000920B92038A610EE00C4A281C0021012374
:10723000FFF738FE07E08A78084B1A60054B9A6919
:10724000920B92039A61012076BDC0468806002009
:10725000350B0020400B0020440C0020380B002090
:10726000F8B54B4B071C1C78002C00D08FE0494D23
:107270002868838B19070ED5201C211CFFF7D4F832
:107280002B6810201A1CFF32917A01439172424AF6
:10729000146008229A832B689A8B50071FD504220A
:1072A0009A833E4B1A78002A0AD01A78013AD2B251
:1072B0001A701B78002B03D11A20012100F088F9E5
:1072C000374B1A78002A0AD01A78013AD2B21A70CB
:1072D0001B78002B03D11920012100F079F92B68CC
:1072E000FF331A7AD10626D510221A725A79402114
:1072F0000A432C495A710A786023381C1A4202D179
:10730000FFF722FF01E0FFF77DFB002806D02B6886
:107310008022FF33997952420A4301E0224B202216
:107320009A712B68FF331A7A500604D540221A72DC
:10733000597A0A435A722968FE230E8C00241E4093
:10734000E1B2002E23D0321C012322411A4216D072
:10735000221C2868083252018218D079184203D1C1
:10736000D279DA401A4207D0104BA200D058002838
:1073700009D003681B6898470123A3409E4301344A
:10738000092CDDD103E0381CFFF766FAF4E7F8BDFD
:10739000340B0020400B0020440C00205409002036
:1073A0003C0B002058090020FF500041180B002022
:1073B00008B50248FFF754FF08BDC046370B002050
:1073C000014A024B1A60704700500041400B0020F8
:1073D000314BFA21186810B5890000F07BFC2F4B67
:1073E0000138984224D82E4A2E4B5060186AC0218A
:1073F0000002000A09060143196200240721946073
:107400001160196A80220902090A12060A431A62E7
:10741000254BFC211A6A0A431A62196AFC2292015E
:107420000A431A62196AA022D2020A431A6200E0D1
:10743000FEE7201C0021013400F070F8142CF8D174
:107440001A4C63785BB2002BFADB194B6380194B43
:107450005A7ED209012AFAD0E422D2009A803F2231
:10746000DA70597E134AC9090129FAD0C0235B0199
:1074700000201361907000F023F863785BB2002B5A
:10748000FBDB0D4A094B5A800C4BDA79D209012AF1
:10749000FAD041225A7010BD80000020FFFFFF008B
:1074A00010E000E000ED00E000040040000C0040AF
:1074B0001E40000000400042214000000048004201
:1074C00000B5144A517E131CC9090129F9D00138AD
:1074D000042813D81969104A0A401A615A780F21F2
:1074E0008A4300F0EDFB030509070300012102E0D8
:1074F000032100E002210A435A700AE01169F023D7
:107500001B050B43136153780F218B4302210B435F
:10751000537000BD00400042FFFFFFF010B518247B
:10752000021C201C5043274B1818007A40B201302F
:1075300046D0032944D8081C211C00F0C1FB0233AB
:107540001121624398569A18C3011F4852681B18AC
:1075500099184031022008700121914059602FE0B4
:107560006243985618499A185268C3015B189918D3
:1075700040310620087001219140596099611FE057
:1075800051435A56104859184B68D2011118C8185F
:107590004030062404700120984048600B4952187E
:1075A00050600DE0624398569A18C301064852682D
:1075B0001B189918403102200870012191409960F0
:1075C00010BDC04610AA0000004400411044004114
:1075D00018235843134AF0B5131808241C570134D4
:1075E0001FD08256104ED2015D6801249019231CD1
:1075F0008668AB401E420BD10E1C771EBE4140195F
:1076000034404030A50004780426B4432C43047071
:10761000002903D105495218536002E0024E921925
:107620009361F0BD10AA00000044004110440041E5
:1076300018235843084A082113185956013109D014
:1076400082560649D20152185B68106AD84001235D
:10765000184000E00020704710AA000000440041DC
:1076600018224243F8B52D4D0824AA181457031CBC
:10767000621C50D0481C00240C284CD800F020FB81
:10768000071E1E1E1E1E1E1E1E0A0A0A0A000124B6
:10769000644240E0092902D1181C002103E00A29B4
:1076A00004D1181C0221FFF739FF23E000240B2925
:1076B00031D1181C0121FFF731FF2CE01822534370
:1076C000EA185268EB560120141C04405508DB01EF
:1076D000002C11D0124C1B195D1930352E780C017D
:1076E0000F21314021439A18C9B2297040321378D2
:1076F0001843107000240EE0094E0F279B195D19E6
:1077000030352E789A18BE433143C9B229704032C1
:10771000137818431070201CF8BDC04610AA000052
:107720000044004108B5024800F098F908BDC04681
:10773000040D002008B5024800F090F908BDC046CD
:10774000480C0020F7B5164F1649381CFEF76EFAA4
:1077500015491648FEF76AFA15491648FEF766FA03
:1077600015491648FEF762FA15491648FEF75EFA03
:10777000154D03260124281C1449FEF757FA391C1D
:107780000096231C01940022114800F087F800960F
:10779000291C01941F221E230E4800F07FF8F7BD1C
:1077A000C40D002000080042000C0042C80D00205B
:1077B00000100042CC0D002000140042C00D00203B
:1077C00000180042D00D0020D40D0020001C004203
:1077D000040D0020480C00200120704708B5036804
:1077E000014A1B6A984708BD13040000826D436D6F
:1077F0009A4203D0836DC018007D01E00120404211
:10780000704710B5041C0069FEF741FA0023221CE2
:1078100063659C32A365A0341360236010BD000033
:10782000F0B587B001930CAB1B78002502930DAB2C
:107830001B78402603930EAB1B78041C04930FABFC
:107840001B780F1C0593FA239B008360124B009258
:10785000083303604560291C321C143002F090FD8F
:10786000201C6565321CA565291C5C3002F088FD72
:10787000009A231C9C331D605D6027611A72019A77
:10788000201C5A72029A9A72039ADA72049A1A7334
:10789000059A1A7707B0F0BD30AE000030B585B05C
:1078A000041C08A8057809A8007800950190FF201D
:1078B00002900390201CFFF7B3FF201C05B030BDE1
:1078C000F023081C18403038434258417047F023D9
:1078D0001B01194080239B0099420CD0C0239B00C0
:1078E000994206D080235B000520994204D00020F5
:1078F00002E0072000E0062070470F23194001290D
:1079000005D002394B424B410220C01A00E0002052
:1079100070470000F0B5031C85B00391A433041C2C
:10792000182718783B1C4343344E0821F318595646
:10793000151CFFF795FE231CA53318783B1C434309
:107940000821F3185956FFF78BFE231CA7331B7829
:10795000022B0AD1231CB8331878FF2805D04743DF
:107960000821F7197956FFF77BFE271CA8373878CE
:10797000FF281AD00121FFF7D1FD3B7818225A4386
:10798000B3561F4FDB01211CAC31D81908601D49CB
:10799000B6185B18211C7268B0310B600121914050
:1079A0000A1C211CB4310A601A6001210A1C039BC5
:1079B0002069FEF71BFB291C201CFFF788FF291CF0
:1079C000071C201CFFF799FF291C061C201CFFF731
:1079D00077FF391C0090331C20690122FEF728F93B
:1079E000231CA7331978013B1A782069FEF73CF96C
:1079F0002069FEF75AF905B0F0BDC04610AA000094
:107A00001844004114440041026C436CD01A00D564
:107A10004030704710B5041C201C5C30FFF7F4FFA9
:107A20000028F9D12069FEF74AF910BD08B51430D5
:107A3000FFF7EAFF08BD026C436C9A4204DB036C5B
:107A4000406CC01A3F3003E0426C036CD01A01381E
:107A5000704708B55C30FFF7EEFF08BD38B5041C71
:107A60000069FEF738F900281FD02069FEF748F9B1
:107A7000636D3F2201331340A26D934203D0626DC8
:107A8000A21810756365231CA8331B78FF2B0CD03C
:107A9000201C1430FFF7CFFF092806DC231C221C12
:107AA000AC33B4321B6812681A602069FEF723F900
:107AB000002820D0251C5C35281CFFF7A5FF031CDF
:107AC0002069002B15D0231C221CA0339C3219687E
:107AD0001268914207D01A68A95C1A683F250132E2
